:100000000C94C8000C9473160C94A0160C94331224
:100010000C9457120C947B120C94F0000C94F0008A
:100020000C94F0000C94F0000C94F0000C94F00090
:100030000C94F0000C94F0000C94F0000C94F00080
:100040000C94F5130C94F0000C946C170C94AF17EF
:100050000C94F0000C94F0000C94F0000C94F00060
:100060000C94F0000C94F000EE0FFF0F05100E1032
:1000700017101D10301094109410E00F5D106610D2
:10008000761079107D1000C20100010011001100EE
:100090000C0000E100000A00250025002100009668
:1000A00000001900390039003600127A00001F00E4
:1000B0004600460044008070000022004D004D00C4
:1000C0004A00004B00003600750075007200403891
:1000D00000004A009C009C009900802500007200EE
:1000E000EC00EC00E900C0120000E900DA01DA01DE
:1000F000D70160090000D701B603B603B303B0040B
:100100000000B3036E076E076B07580200006E070E
:10011000DC0EDC0ED80E2C010000DC0EC11DC11D52
:10012000BE1D0000000700020100000304060000DD
:1001300000000000000001020408102040800102BD
:10014000040810200102040810200404040404041C
:100150000404020202020202030303030303000079
:1001600000002300260029000000000025002800D0
:100170002B0000000000240027002A006364696E41
:100180006F70737578585B008D0B880D6B18A30D1D
:1001900011241FBECFEFD8E0DEBFCDBF11E0A0E03D
:1001A000B1E0E4E8FBE402C005900D92AA3DB1077E
:1001B000D9F724E0AAEDB1E001C01D92A532B20743
:1001C000E1F711E0CEE8D1E004C02297FE010E94E1
:1001D0004F1FC838D107C9F70E94CD160C94B5251A
:1001E0000C9400002F923F924F925F926F927F92F9
:1001F0008F929F92AF92BF92CF92DF92EF92FF9237
:100200000F931F93CF93DF93CDB7DEB72B970FB626
:10021000F894DEBF0FBECDBF9B878A87DC01D896DE
:10022000BC91B983B11102C01982E2C00E943F148F
:100230006A837B838C839D83EA85FB8580A191A162
:10024000A2A1B3A14A815B816C817D81481B590BBE
:100250006A0B7B0B84A595A5A6A5B7A548175907DA
:100260006A077B0708F3028CF38DE02D8080918074
:10027000A280B380AA85BB855E96ED91FC915F97C5
:10028000A501940160817181828193810E94DD1CAE
:100290002B013C01EA85FB852089318942895389FC
:1002A0000E94951EAA85BB8594962D913D914D91F6
:1002B0005C9197970E94DE1C6B017C01EA85FB85AF
:1002C00064A375A386A397A324A835A806A917A994
:1002D0009101A8010E94911E18161CF4C101D801B9
:1002E00018C0AA85BB85D0968D919D910D90BC912B
:1002F000A02D8E839F83A887B9879C01AD01C7017C
:10030000B6010E94421D87FF0AC08E819F81A88589
:10031000B985EA85FB8584A395A3A6A3B7A3AA857F
:10032000BB851C962D913D914D915C911F97C3010A
:10033000B2010E94951EEA85FB8524A135A146A144
:1003400057A10E94DE1C6B017C01AA85BB85989693
:100350002D913D914D915C919B97C501B4010E94F7
:10036000DD1CEA85FB8524893589468957890E94E9
:10037000951E9B01AC01C701B6010E94DD1C6B01FB
:100380007C019101A8010E94911E1816BCF0AA855B
:10039000BB85D0962C90D097D1963C90D197D29691
:1003A0000C91D297D3961C919101A801B601C70177
:1003B0000E94421D87FD02C016018701AA85BB85E8
:1003C0005C96ED91FC915D97C101D801808391838A
:1003D000A283B383EA85FB8580A691A6A2A6B3A6D5
:1003E0008A819B81AC81BD8180A391A3A2A3B3A389
:1003F00089812B960FB6F894DEBF0FBECDBFDF917B
:10040000CF911F910F91FF90EF90DF90CF90BF9011
:10041000AF909F908F907F906F905F904F903F90A4
:100420002F9008952F923F924F925F926F927F92FA
:100430008F929F92AF92BF92CF92DF92EF92FF92F4
:100440000F931F93CF93DF9300D000D0CDB7DEB7CB
:100450001C012A013B014801590120E030E0A901BB
:10046000C301B2010E94421D87FD78C020E030E048
:10047000A901C501B4010E94421D87FD6FC020E0A3
:1004800030E0A901C701B6010E94421D87FD66C088
:10049000F101408251826282738284829582A682B7
:1004A000B782C086D186E286F38664A575A586A547
:1004B00097A50E94DF1D20E030E04AE754E40E9447
:1004C000461D69837A838B839C83F101448655861C
:1004D000668677869B01AC01C501B4010E94951E1A
:1004E0004B015C01F101608B718B828B938B2981B5
:1004F0003A814B815C81C701B6010E94461D6B01A8
:100500007C01F101648B758B868B978B808D918D2F
:10051000019721F5A301920160E070E0CB010E94F8
:10052000DD1CF1016487758786879787A501940193
:1005300060E070E0CB010E94DD1CF101608B718BEB
:10054000828B938BA701960160E070E0CB010E9443
:10055000DD1CF101648B758B868B978B0F900F9050
:100560000F900F90DF91CF911F910F91FF90EF901F
:10057000DF90CF90BF90AF909F908F907F906F90C3
:100580005F904F903F902F9008958F929F92AF92DF
:10059000BF92CF92DF92EF92FF92CF93DF93EC0165
:1005A00016161706ACF56B01EE24D7FCE094FE2C72
:1005B000C701B6010E94E11D4B015C016CA57DA540
:1005C0008EA59FA50E94DF1D9B01AC01C501B40152
:1005D0000E94461D4B015C019B01AC016889798931
:1005E0008A899B890E94951E688B798B8A8B9B8B4D
:1005F000A50194016C897D898E899F890E94461D81
:100600006C8B7D8B8E8B9F8BCCA6DDA6EEA6FFA67A
:10061000DF91CF91FF90EF90DF90CF90BF90AF90A0
:100620009F908F9008952F923F924F925F926F927A
:100630007F928F929F92AF92BF92CF92DF92EF9272
:10064000FF920F931F93CF93DF93EC016A017B011D
:1006500048015901A9019801C701B6010E94911EE4
:1006600087FF4EC0C8AAD9AAEAAAFBAA8CAA9DAA4B
:10067000AEAABFAA88AD882309F442C02C8C3D8C59
:10068000F1014080518062807380A5019401C30113
:10069000B2010E94911E181634F4F10180829182F9
:1006A000A282B3820DC0A7019601C301B2010E94CC
:1006B000421D87FF05C0F101C082D182E282F38230
:1006C0008CA09DA0AEA0BFA0CCA8DDA8EEA8FFA8DE
:1006D000A7019601C501B4010E94911E181664F08D
:1006E000C8A8D9A8EAA8FBA8A7019601C501B4012A
:1006F0000E94421D87FF04C0CCA2DDA2EEA2FFA291
:10070000DF91CF911F910F91FF90EF90DF90CF90ED
:10071000BF90AF909F908F907F906F905F904F9021
:100720003F902F9008958F929F92AF92BF92CF9259
:10073000DF92EF92FF92CF93DF93EC01EC8DFD8D72
:10074000C080D180E280F380CCA2DDA2EEA2FFA225
:10075000EA8DFB8D80819181A281B38188A799A7C1
:10076000AAA7BBA78CA89DA8AEA8BFA8A501940165
:10077000C701B6010E94911E181664F088A899A8B6
:10078000AAA8BBA8A5019401C701B6010E94421DF9
:1007900087FF04C08CA29DA2AEA2BFA2DF91CF9121
:1007A000FF90EF90DF90CF90BF90AF909F908F9091
:1007B00008951F93CF93DF93EC0111E06130710531
:1007C00009F010E088AD91E08927181303C0CE012D
:1007D0000E94930318AFDF91CF911F9108950F935B
:1007E0001F93CF93DF93EC018B0188AD882361F1D8
:1007F000888D998D6817790739F12C853D854E854F
:100800005F8560E070E0CB010E94DD1C6C877D8716
:100810008E879F87288939894A895B8960E070E0E3
:10082000CB010E94DD1C688B798B8A8B9B8B2C897A
:100830003D894E895F8960E070E0CB010E94DD1C3C
:100840006C8B7D8B8E8B9F8B198F088FDF91CF9157
:100850001F910F9108954F925F926F927F928F92A6
:100860009F92AF92BF92CF92DF92EF92FF920F933F
:100870001F93CF93DF9300D000D0CDB7DEB74C01EC
:1008800027013801A982BA82CB82DC82FC01558F14
:10089000448F738F628F378F268F10AE10AA11AAE4
:1008A00012AA13AA80E090E0AFE7B3E484AB95AB63
:1008B000A6ABB7AB84E690E0A0E0B0E084A795A734
:1008C000A6A7B7A76B8D7C8DC4010E94EF03CF88CC
:1008D000D88CE98CFA8C09811A812B813C81B30177
:1008E000A201C4010E9412020E943F14F40144A418
:1008F00055A466A477A4641975098609970960A3AD
:1009000071A382A393A30F900F900F900F90DF918C
:10091000CF911F910F91FF90EF90DF90CF90BF90FC
:10092000AF909F908F907F906F905F904F900895C1
:100930004F925F926F927F928F929F92AF92BF92EF
:10094000CF92DF92EF92FF920F931F93CF93DF939B
:10095000EC01623371053CF08B01673971052CF0B5
:1009600006E910E002C002E310E0B801882777FD35
:100970008095982F0E94E11D2B013C016627772767
:10098000601B710B882777FD8095982F0E94E11DD1
:100990004B015C0193018201AB01BC018EE692E048
:1009A0000E9413038BEE92E00E94C10CBE018827C7
:1009B00077FD8095982F0E94E11D26E636E642E1FC
:1009C00051E40E94951E6B017C016093CB027093F1
:1009D000CC028093CD029093CE0293018201B501A7
:1009E000A40185E392E00E94130387EF92E00E9446
:1009F000C10CC092B702D092B802E092B902F09254
:100A0000BA02D093E002C093DF02C0900001D09000
:100A10000101E0900201F0900301809004019090A8
:100A20000501A0900601B090070160910801709146
:100A30000901882777FD8095982F0E94E11DAB0161
:100A4000BC01950184018EE692E00E941202C090E2
:100A50000001D0900101E0900201F090030180902C
:100A6000040190900501A0900601B09007016091EB
:100A7000080170910901882777FD8095982F0E94C1
:100A8000E11DAB01BC019501840185E392E00E9468
:100A90001202C0900001D0900101E0900201F0909C
:100AA00003018090040190900501A0900601B09090
:100AB00007016091080170910901882777FD8095F1
:100AC000982F0E94E11DAB01BC019501840184EEC9
:100AD00091E00E94120281E08093D0028093CF02C5
:100AE0001092E102DF91CF911F910F91FF90EF9053
:100AF000DF90CF90BF90AF909F908F907F906F903E
:100B00005F904F9008958BEE92E00E945B0C90589E
:100B100026E636E642E151E40E94461D0E94AE1DE3
:100B2000CB01089587EF92E00E945B0C905826E677
:100B300036E642E151E40E94461D0E94AE1DCB0103
:100B400008954F925F926F927F928F929F92AF9291
:100B5000BF92CF92DF92EF92FF920F931F93CF93AA
:100B6000DF9300D000D0CDB7DEB76B017C014035FC
:100B700051053CF08A01453651052CF004E610E0A1
:100B800002C000E510E0B801882777FD8095982F16
:100B90000E94E11D2B013C0166277727601B710B2A
:100BA000882777FD8095982F0E94E11D69837A83BD
:100BB0008B839C8393018201AB01BC018EE692E0A2
:100BC0000E9413038BEE92E00E94C10C24E13EEAE6
:100BD00047E85FE3C701B6010E94951E4B015C0127
:100BE000DC01CB01B0588093CB029093CC02A09350
:100BF000CD02B093CE029301820149815A816B816B
:100C00007C8185E392E00E94130387EF92E00E94CB
:100C1000C10C8092B7029092B802A092B902B09231
:100C2000BA02C701B6010E94AE1D7093E002609344
:100C3000DF028DECC82E8CECD82E8CE4E82E8DE3F0
:100C4000F82E00E010E0980140E050E060E171E42F
:100C50008EE692E00E94120200E010E0980140E06F
:100C600050E060E171E485E392E00E941202C12C41
:100C7000D12C760197018601B701A60184EE91E09F
:100C80000E94120281E08093D0028093CF021092E2
:100C9000E1020F900F900F900F90DF91CF911F9175
:100CA0000F91FF90EF90DF90CF90BF90AF909F900B
:100CB0008F907F906F905F904F9008950F931F9348
:100CC00061E070E08EE692E00E94D90361E070E09E
:100CD00085E392E00E94D90361E070E08EE692E045
:100CE0000E94C50261E070E085E392E00E94C502C7
:100CF00000E010E026E133E440E050E066E173EC10
:100D00008EE692E00E94130300E010E026E133E457
:100D100040E050E066E173EC85E392E00E9413034B
:100D200061E070E084EE91E00E94D90361E070E040
:100D300084EE91E00E94C50200E010E020E231E480
:100D400040E050E060E271EC84EE91E00E94130319
:100D50001F910F910895CF93DF9361E0809110016F
:100D60000E94BA1461E080910C010E94BA1461E003
:100D7000809112010E94BA1461E080910E010E94DC
:100D8000BA14CAE0D1E061E088810E94BA1461E03F
:100D90008881DF91CF910C94F314CF93DF93FB0103
:100DA000208131818A36FFEF9F07A4F0EC0187395B
:100DB000910514F0C6E9D0E0209759F526303105A9
:100DC00019F460E070E013C025303105B9F560E03A
:100DD00070E01AC0CAE6DFEF2630310551F460E05A
:100DE00086E00E94F314662777276C1B7D0B8AE050
:100DF0000CC02530310511F561E085E00E94F31447
:100E0000662777276C1B7D0B89E0DF91CF910C94CF
:100E1000F4151C161D0604F72630310531F461E087
:100E200086E00E94F314BE01E2CF2530310531F493
:100E300060E085E00E94F314BE01E6CFDF91CF9120
:100E400008951092D0021092CF0260E171E080E02C
:100E500090E00E94CD066CE071E080E090E00E949E
:100E6000CD068BEE92E00E945B0C6093CB027093F8
:100E7000CC028093CD029093CE0287EF92E00E9445
:100E80005B0C6093B7027093B8028093B9029093A1
:100E9000BA021092DD021092DE0208958091E10202
:100EA0000895CF92DF92EF92FF922091C702309186
:100EB000C8024091C9025091CA026091CB02709160
:100EC000CC028091CD029091CE020E94DD1C6B017C
:100ED0007C0120E030E0A9010E94911E18165CF40C
:100EE00020E030E040EA50E4C701B6010E94421D14
:100EF00018165CF425C020E030E040EA50ECC70151
:100F0000B6010E94911E87FD12C08091DB01811104
:100F10000EC00E943F146093E0017093E101809342
:100F2000E2019093E30181E08093DB0139C020E08E
:100F300030E0A901C701B6010E94911E18165CF4A9
:100F400020E030E040EA50E4C701B6010E94421DB3
:100F500018165CF425C020E030E040EA50ECC701F0
:100F6000B6010E94911E87FD1BC08091DB01882382
:100F7000B9F00E943F14C090E001D090E101E090F0
:100F8000E201F090E3016C197D098E099F096B3F26
:100F900071058105910520F01092DB0181E001C00F
:100FA00080E0FF90EF90DF90CF900895CF92DF9296
:100FB000EF92FF922091B3023091B4024091B502BA
:100FC0005091B6026091B7027091B8028091B90257
:100FD0009091BA020E94DD1C6B017C0120E030E0A0
:100FE000A9010E94911E18165CF420E030E040EA4E
:100FF00050E4C701B6010E94421D18165CF425C0DA
:1010000020E030E040EA50ECC701B6010E94911E9A
:1010100087FD12C08091DA0181110EC00E943F1439
:101020006093DC017093DD018093DE019093DF011A
:1010300081E08093DA0139C020E030E0A901C701E6
:10104000B6010E94911E18165CF420E030E040EAE0
:1010500050E4C701B6010E94421D18165CF425C079
:1010600020E030E040EA50ECC701B6010E94911E3A
:1010700087FD1BC08091DA018823B9F00E943F14DC
:10108000C090DC01D090DD01E090DE01F090DF0146
:101090006C197D098E099F096B3F710581059105CA
:1010A00020F01092DA0181E001C080E0FF90EF9023
:1010B000DF90CF9008950E945107882399F00E94F5
:1010C000D607882379F08091D002882359F06BE10C
:1010D00071E087E793E00E944F190E94210781E0A9
:1010E0008093E10208954F925F926F927F928F9268
:1010F0009F92AF92BF92CF92DF92EF92FF92CF93E7
:10110000DF9300D000D0CDB7DEB78BEE92E00E9427
:101110005B0CDC01CB01B0588093C7029093C802EE
:10112000A093C902B093CA0287EF92E00E945B0CC1
:1011300069837A838B839C836B017C01F7FAF0943B
:10114000F7F8F094C092B302D092B402E092B502E4
:10115000F092B6024090CB025090CC026090CD024B
:101160007090CE028090C7029090C802A090C902F1
:10117000B090CA02A5019401C301B2010E94911E60
:1011800018162CF4A5019401C301B20104C0A301F7
:101190009201C501B4010E94DD1C20E030E040E86E
:1011A0005FE30E94DE1C6093BB027093BC028093DD
:1011B000BD029093BE028090B7029090B802A090BA
:1011C000B902B090BA02A7019601C501B4010E940C
:1011D000911E18164CF429813A814B815C81C5011E
:1011E000B4010E94DE1C06C0A5019401C701B6012E
:1011F0000E94DD1C20E030E040E85FE30E94DE1C3E
:101200006093A7027093A8028093A9029093AA0208
:101210008091DF029091E002181619068CF420915B
:10122000BB023091BC024091BD025091BE02609160
:10123000A7027091A8028091A9029091AA0210C001
:101240002091A7023091A8024091A9025091AA02D0
:101250006091BB027091BC028091BD029091BE0270
:101260000E94DD1C6093210270932202809323026E
:101270009093240284EE91E00E94F2008EE692E0C8
:101280000E94F200882309F493C08091D002882341
:1012900009F48EC085E392E00E94F200882309F4ED
:1012A00087C08091CF02882309F482C0C0901D02BC
:1012B000D0901E02E0901F02F090200220E030E06B
:1012C000A901C701B6010E94911E18160CF08DC02D
:1012D0008090AF029090B002A090B102B090B202A4
:1012E00020E030E0A901C501B4010E94911E18164A
:1012F0000CF072C020E030E0A9016091C30270914F
:10130000C4028091C5029091C6020E94911E1816D7
:101310000CF06BC0C501B4010E94AE1DDC01CB0115
:101320006CE071E00E94CD0620911D0230911E02FA
:1013300040911F02509120026091C3027091C4023B
:101340008091C5029091C6020E94DD1C0E94AE1DD4
:10135000DC01CB0160E171E00E94CD068091AF021B
:101360009091B002A091B102B091B2028093AB0211
:101370009093AC02A093AD02B093AE0220911D02F7
:1013800030911E0240911F02509120026091C302D1
:101390007091C4028091C5029091C6020E94DD1C2A
:1013A0006093BF027093C0028093C1029093C20207
:1013B0000F900F900F900F90DF91CF91FF90EF90D3
:1013C000DF90CF90BF90AF909F908F907F906F9065
:1013D0005F904F900C945B0820E030E0A901C501BC
:1013E000B4010E94421D87FD85CF20E030E0A901B5
:1013F000C701B6010E94421D87FF5DC08090AF0209
:101400009090B002A090B102B090B20220E030E023
:10141000A901C501B4010E94911E18160CF04BC021
:101420004090C3025090C4026090C5027090C60202
:1014300020E030E0A901C301B2010E94911E1816FC
:101440004CF020E030E0A901C301B2010E94421D2E
:1014500087FF31C0A7019601C501B4010E94DE1CBF
:101460000E94AE1DDC01CB016CE071E00E94CD0654
:101470006091C3027091C4028091C5029091C6022E
:101480000E94AE1DDC01CB0160E171E00E94CD063F
:1014900020911D0230911E0240911F0250912002A6
:1014A0006091AF027091B0028091B1029091B2024E
:1014B0000E94DE1CDFC020E030E0A901C701B601B8
:1014C0000E94911E18160CF071C08090AF0290908F
:1014D000B002A090B102B090B20220E030E0A901C9
:1014E000C501B4010E94421D87FD0AC020E030E022
:1014F000A901C501B4010E94911E18160CF056C036
:1015000020E030E0A9016091C3027091C402809193
:10151000C5029091C6020E94421D87FF47C0C501C7
:10152000B4010E94AE1DDC01CB016CE071E00E94B1
:10153000CD0620911D0230911E0240911F02509154
:1015400020026091C3027091C4028091C502909103
:10155000C6020E94DE1C0E94AE1DDC01CB0160E1D0
:1015600071E00E94CD068091AF029091B002A091EF
:10157000B102B091B2028093AB029093AC02A093FF
:10158000AD02B093AE0220911D0230911E02409137
:101590001F02509120026091C3027091C402809199
:1015A000C5029091C6020E94DE1CFACE20E030E017
:1015B000A901C701B6010E94421D87FF64C0809047
:1015C000AF029090B002A090B102B090B20220E0C1
:1015D00030E0A901C501B4010E94421D87FF53C03C
:1015E0004090C3025090C4026090C5027090C60241
:1015F00020E030E0A901C301B2010E94421D87FD35
:1016000009C020E030E0A901C301B2010E94911E8F
:101610001816CCF5A7019601C501B4010E94DD1C86
:101620000E94AE1DDC01CB016CE071E00E94CD0692
:101630006091C3027091C4028091C5029091C6026C
:101640000E94AE1DDC01CB0160E171E00E94CD067D
:1016500020911D0230911E0240911F0250912002E4
:101660006091AF027091B0028091B1029091B2028C
:101670000E94DD1C6093AB027093AC028093AD02BC
:101680009093AE0230C06091AF027091B002809131
:10169000B1029091B2020E94AE1DDC01CB016CE060
:1016A00071E00E94CD066091C3027091C4028091E6
:1016B000C5029091C6020E94AE1DDC01CB0160E123
:1016C00071E00E94CD068091AF029091B002A0918E
:1016D000B102B091B2028093AB029093AC02A0939E
:1016E000AD02B093AE028091C3029091C402A0916A
:1016F000C502B091C6028093BF029093C002A0932E
:10170000C102B093C20254CE8091D002811103C0B5
:101710008091CF02089581E00895AF92BF92CF9259
:10172000DF92EF92FF920F931F93A090D502B0909B
:10173000D602C090D702D090D802E090D902F090A3
:10174000DA020091DB021091DC021F921F9280915D
:10175000D4028F938091D3028F938091D2028F9382
:101760008091D1028F932BEC32E043EC52E067EC96
:1017700072E08EE692E00E942B04A090D502B09019
:10178000D602C090D702D090D802E090D902F09053
:10179000DA020091DB021091DC021F921F9280910D
:1017A000D4028F938091D3028F938091D2028F9332
:1017B0008091D1028F9327EB32E04FEA52E063EB46
:1017C00072E085E392E00E942B04A0902D02B0907D
:1017D0002E02C0902F02D0903002E0903102F090A3
:1017E000320200913302109134021F921F928091B5
:1017F0002C028F9380912B028F9380912A028F93DA
:10180000809129028F9325E232E04DE152E061E2BE
:1018100072E084EE91E00E942B040E943F146093DA
:10182000E0017093E1018093E2019093E3010E9453
:101830003F146093DC017093DD018093DE0190938F
:10184000DF018DB79EB742960FB6F8949EBF0FBECC
:101850008DBF1F910F91FF90EF90DF90CF90BF90C1
:10186000AF900895FC0110821182128213821086BB
:101870001186128613860895CF93DF93EC016230B0
:10188000710529F06330710529F481E001C080E021
:1018900090E002C08FEF9FEF8C839D835F834E8328
:1018A00043E050E0B9010E94531660E08E81DF9161
:1018B000CF910C94BA14FC01608571858285938563
:1018C0000895FC0140875187628773870895FC0162
:1018D00086810E94291521E0892B09F420E0822FBE
:1018E000089587EF92E00E94670C20E030E040E826
:1018F0005FE3882359F06091FF02709100038091AB
:101900000103909102030E94DE1C0AC06091FF0255
:101910007091000380910103909102030E94DD1CED
:101920006093FF027093000380930103909302037E
:1019300008958BEE92E00E94670C20E030E040E8D2
:101940005FE3882359F06091F3027091F402809173
:10195000F5029091F6020E94DD1C0AC06091F3022C
:101960007091F4028091F5029091F6020E94DE1CC3
:101970006093F3027093F4028093F5029093F60261
:101980000895FC011086118612861386089584EE50
:1019900092E00E94611983E093E00E9461198AE05D
:1019A00093E00C94EE13CF93C82F60E00E94BA141A
:1019B0008C2FCF910C942915CF93C82F60E00E94F3
:1019C000BA148C2FCF910C94D7151F93CF93DF931C
:1019D000182FEB0161E00E94BA14BE01882777FD41
:1019E0008095982F0E94E11DC1E020E030E040E8A2
:1019F0005FE30E94421D8111C0E06C2F812FDF91B7
:101A0000CF911F910C94F3141F93CF93DF93182F52
:101A1000EB0161E00E94BA14BE01812FDF91CF91EA
:101A20001F910C94F41540E855E260E070E08AE004
:101A300093E00C941D13CF93C82F61E00E94BA1459
:101A400060E08C2F0E94F31484E090E00E944B141D
:101A500061E08C2F0E94F3148AE090E00E944B1406
:101A600060E08C2F0E94F31460E08C2F0E94BA1467
:101A700020EA36E841E050E061E08C2F0E945215E8
:101A800022E030E040E050E00E942E1FCA01B90180
:101A90000E94E11D2DEC3CEC48EE51E40E94461DF5
:101AA0000E94AE1DCB01CF91089540E052EC61E061
:101AB00070E087E793E00E94EA1762E370E084EE4B
:101AC00092E00E9492190E94130D21E73CE044E04D
:101AD00050E063E070E087EF92E00E943C0C29E95F
:101AE0003CE048E050E062E070E08BEE92E00E9463
:101AF0003C0C0E94AB060E945E068091E2028823A5
:101B000031F06CE271E087E793E00C944F1908958F
:101B100020E04CE06BE08AE093E00E94ED1264E587
:101B200071E083E093E00E94CF1987EF92E00E947A
:101B3000320C8BEE92E00E94320C64E571E084EE90
:101B400092E00C94CF190C94C70CCF93DF938AE0EA
:101B500093E00E94FF100E9724F18AE093E00E9428
:101B6000C410029721F08AE093E00E94171164E507
:101B700071E083E093E00E94071ACCE0D0E08AE0B5
:101B800093E00E94C410682F83E093E00E94521AF1
:101B900021972097A1F78AE093E0DF91CF910C94F1
:101BA000C410DF91CF910895CF93DF93D1E087E701
:101BB00093E00E94DA16892B79F087E793E00E9480
:101BC0000317C82F682F84EE92E00E94521ACA3081
:101BD00071F7D093E302EBCFDF91CF910895AF92ED
:101BE000BF92CF92DF92EF92FF920F931F93CF930A
:101BF000DF93CDB7DEB7C654D1090FB6F894DEBF78
:101C00000FBECDBF0E94D40D0E94A50D8091E202AF
:101C1000882309F483C164E371E084EE92E00E94BA
:101C2000731A882349F066E371E087E793E00E9426
:101C30004F1962E370E023C06EE371E084EE92E03E
:101C40000E94731A882359F067E371E087E793E0F5
:101C50000E944F1964E170E084E190E012C060E4FA
:101C600071E084EE92E00E94731A882391F062E49E
:101C700071E087E793E00E944F1960E570E08CEE19
:101C80009FEF0E94980460E070E084EE92E00E9472
:101C9000071A6AE471E084EE92E00E94731A8823C6
:101CA00049F063E471E087E793E00E944F1960E533
:101CB00070E025C063E871E084EE92E00E94731A40
:101CC000882369F06CE471E087E793E00E944F1984
:101CD00064E670E08CEE9FEF0E94980493C065E587
:101CE00071E084EE92E00E94731A882359F06DE44B
:101CF00071E087E793E00E944F1964E670E084E1A9
:101D000090E0EACF67E571E084EE92E00E94731AFA
:101D1000882349F069E571E087E793E00E944F1955
:101D200068E770E0D7CF62E671E084EE92E00E944F
:101D3000731A882349F06AE571E087E793E00E940F
:101D40004F1968E770E0DBCF64E671E084EE92E063
:101D50000E94731A882349F066E671E087E793E0F2
:101D60000E944F1966E970E0B5CF63E571E084EE3B
:101D700092E00E94731A882349F067E671E087E7D2
:101D800093E00E944F1966E970E0B9CF6FE671E009
:101D900084EE92E00E94731A882349F061E771E0B3
:101DA00087E793E00E944F1942E350E025C069E7BE
:101DB00071E084EE92E00E94731A882369F062E772
:101DC00071E087E793E00E944F1942E350E060E042
:101DD00070E084EB92E414C06BE771E084EE92E073
:101DE0000E94731A8823A1F06DE771E087E793E002
:101DF0000E944F1940E550E060E070E084EB92EC07
:101E00000E94A10560E070E084EE92E00E94071A53
:101E100065E871E084EE92E00E94731A882349F02D
:101E20006EE771E087E793E00E944F1940E550E0CC
:101E300069C067E871E084EE92E00E94731A88231B
:101E400049F069E871E087E793E00E944F1944E6A2
:101E500050E043C061E971E084EE92E00E94731AA1
:101E6000882349F06AE871E087E793E00E944F1900
:101E700044E650E047C063E971E084EE92E00E94DE
:101E8000731A882349F065E971E087E793E00E94BF
:101E90004F1948E750E021C068EB71E084EE92E012
:101EA0000E94731A882349F06DE971E087E793E097
:101EB0000E944F1948E750E025C064EA71E084EEC3
:101EC00092E00E94731A882369F066EA71E087E75E
:101ED00093E00E944F1946E950E060E070E084EB27
:101EE00092EC14C06FEA71E084EE92E00E94731AE3
:101EF0008823A1F067EA71E087E793E00E944F1919
:101F000046E950E060E070E084EB92E40E94A105B5
:101F100060E070E084EE92E00E94071A0E94840B59
:101F200081110E9473088091E20281111BC180918E
:101F3000E302882309F416C120E030E042E350E0D8
:101F40008E010F5F1F4FB80184EE92E00E94A31A2A
:101F50007E0181E4E80EF11CFF92EF926E0193E4A2
:101F6000C90ED11CDF92CF925E01A5E4AA0EB11C6E
:101F7000BF92AF9281EB91E09F938F931F930F934A
:101F80000E94D31F64E571E0CE01CA960E94CF196A
:101F900064E170E0CE01CA960E9492190FB6F894DF
:101FA000DEBF0FBECDBFD501ED91FC910E5C1F4F82
:101FB000EF30F10508F0B8C0EC5CFF4F0C944D1FFA
:101FC00063E073E0C8010E94FD19B801CE01CA9612
:101FD0000E944B1AC8010E946119A6C0F6018081B7
:101FE00091810E94D30C892B19F064E371E002C047
:101FF00063E571E0CE01CA960E94071A95C0D6012A
:102000008D919C910E94DC0C76C0F70160817181FA
:10201000D6018D919C910E94E50C86C0F7016081EC
:102020007181D6018D919C910E94040D7DC0F601B5
:10203000808191810E941B0D5EC0D7016D917C91C2
:1020400077FF03C08BEE92E012C0882777FD809562
:10205000982F0E94E11DAB01BC018BEE92E02AC0DB
:10206000D7016D917C9177FF1BC087EF92E00E94B2
:102070005B0C9F938F937F936F9387EB91E09F937C
:102080008F931F930F930E94B11FB801CE01CA9680
:102090000E94071A0FB6F894DEBF0FBECDBF44C032
:1020A000882777FD8095982F0E94E11DAB01BC0128
:1020B00087EF92E00E94610C37C0D7016D917C914F
:1020C000F601808191810E9498042EC0D701ED9085
:1020D000FC90F60160817181882777FD8095982FAB
:1020E0000E94E11DA7010E94A1051EC00E94920549
:1020F00002C00E9483059F9303C00E944E071F9257
:102100008F9387EB91E09F938F931F930F930E9480
:10211000B11FB801CE01CA960E94071A0F900F9006
:102120000F900F900F900F90BE01665C7F4FC8011B
:102130000E94FD196AE0C8010E94651ABC0187E788
:1021400093E00E94FF18C8010E9461191092E302F7
:1021500064E571E084EE92E00E94071ACE01CA960F
:102160000E946119CA5BDF4F0FB6F894DEBF0FBE45
:10217000CDBFDF91CF911F910F91FF90EF90DF9036
:10218000CF90BF90AF90089520916803309169037C
:1021900028173907B9F490912603809127039817DF
:1021A00089F0E0912603F0E0E85DFC4F808120910A
:1021B000260330E02F5F3F4F2F73332720932603F2
:1021C00090E008958FEF9FEF08952091680330917C
:1021D00069032817390781F490912603809127031A
:1021E000981751F0E0912603F0E0E85DFC4F808104
:1021F000992787FD909508958FEF9FEF089520917F
:102200006803309169032817390771F48091270317
:102210002091260390E0805C9F4F821B910960E42F
:1022200070E00E94F81E089580E090E008952091EB
:102230006803309169032817390739F48FB7F89488
:1022400010922703109226038FBF0895DC01519648
:10225000ED91FC915297208150968C91809582232C
:102260008083089520E001972FEF8F3F9207D9F7E1
:10227000089520916803309169032817390789F080
:10228000FC01238D2E7F238F2FB7F8941092270304
:102290001092260390936903809368032FBF81E017
:1022A000089580E00895EF92FF920F931F93CF93CC
:1022B000DF93EC018B8DEE85FF859D8581FF04C04A
:1022C0008081892329F447C08081892309F043C094
:1022D0008B899C890E94321108E010E0EE24E3947F
:1022E000F12C8D899E890E943211EE85FF858081B7
:1022F0009D85892311F0FE2803C08E2D8095F8223C
:10230000EE0C015011090115110559F78F89988DAF
:102310000E9432118B8D81FDF094809127032091D2
:10232000260390E001968F73992730E08217930778
:1023300079F0E0912703F0E0E85DFC4FF0828091B6
:10234000270390E001968F7399278093270303C09A
:102350008B8D81608B8FDF91CF911F910F91FF90BB
:10236000EF900895611102C00C942611DC01519682
:10237000ED91FC915297208150968C91282B2083CF
:102380000895DF92EF92FF920F931F93CF93DF9305
:10239000EC01E62E898D9A8D892B39F481E090E04D
:1023A0009B838A8380E090E04DC0DFB6F8946B8D0C
:1023B00066956170CE010E94B211898D9A8D059645
:1023C0000E9432118B8D08E010E0FF24F39481FF0E
:1023D00019C08F2D8E2121F0CE010E94261104C03C
:1023E00061E0CE010E94B211898D9A8D0E94321156
:1023F000FF0C015011090115110559F7CE010E947A
:10240000261119C08F2D8E2129F061E0CE010E9486
:10241000B21103C0CE010E942611898D9A8D0E94AF
:102420003211FF0C015011090115110559F761E036
:10243000CE010E94B211DFBE898D9A8D0E943211A9
:1024400081E090E0DF91CF911F910F91FF90EF908D
:10245000DF9008958091680390916903009711F0CF
:102460000C94531108951F920F920FB60F921124DE
:102470002F933F934F935F936F937F938F939F938C
:10248000AF93BF93EF93FF930E942A12FF91EF91B6
:10249000BF91AF919F918F917F916F915F914F917C
:1024A0003F912F910F900FBE0F901F9018951F9284
:1024B0000F920FB60F9211242F933F934F935F9378
:1024C0006F937F938F939F93AF93BF93EF93FF93FC
:1024D0000E942A12FF91EF91BF91AF919F918F912E
:1024E0007F916F915F914F913F912F910F900FBE10
:1024F0000F901F9018951F920F920FB60F921124F4
:102500002F933F934F935F936F937F938F939F93FB
:10251000AF93BF93EF93FF930E942A12FF91EF9125
:10252000BF91AF919F918F917F916F915F914F91EB
:102530003F912F910F900FBE0F901F9018951F93F2
:10254000CF93DF93EC01162F61E0812F0E94BA1424
:1025500061E0812F0E94F314812F90E0FC01EA5C7E
:10256000FE4FE491E88BFC01E65BFE4FE491F0E066
:10257000EE0FFF1FE859FE4F859194919A8B898B3E
:10258000DF91CF911F9108951F93CF93DF93EC01BB
:10259000162F60E0812F0E94BA148B8D81FD04C03C
:1025A00061E0812F0E94F3141C87812F90E0FC01D1
:1025B000EA5CFE4FE491ED87FC01E65BFE4FE4919F
:1025C000F0E0EE0FFF1FE25AFE4F859194919F8736
:1025D0008E87DF91CF911F910895FF920F931F93E4
:1025E000CF93DF93EC01F62E522F1B821A8208EE56
:1025F00013E020E030E00C831D832E833F838EEBBD
:1026000091E0998388831C8A1B8A1E8A1D8A188EF2
:102610001F8A1A8E198E8B8D8E7F50FB81F98B8FBE
:10262000642FCE010E949F126F2DCE01DF91CF91BA
:102630001F910F91FF900C94C4120F931F93CF938F
:10264000DF93EC011A8E198E188E1F8A1E8A1D8A3E
:10265000A6E8B0E080E090E0FD010591159125919C
:102660003491041715072607370709F031C02CE00D
:10267000289FF001299FF00D1124E657FF4F259167
:1026800034913C8B2B8B2CE0289FF001299FF00D7F
:102690001124E457FF4F259134913E8B2D8B2CE074
:1026A000289FF001299FF00D1124E257FF4F25913B
:1026B0003491388F2F8B2CE0289FF001299FF00D4B
:1026C0001124E057FF4F859194919A8F898F08C00C
:1026D00001961C968D30910509F0BECF1C8A1B8A8D
:1026E0008F89988D892B09F443C08C858631E0F55C
:1026F00020916800883050F091E08E3008F490E02E
:1027000081E001C0880F9A95EAF701C084E0822B2E
:10271000809368002C85283038F02E3040F0263128
:1027200048F0E0E0F0E008C0EDE6F0E005C0EBE6E0
:10273000F0E002C0ECE6F0E03081283030F481E0D7
:1027400001C0880F2A95EAF70DC0822F90E02E3045
:1027500010F4089701C00E9791E001C0990F8A9577
:10276000EAF7892F832B8083898D9A8D0E943211FD
:10277000CE01DF91CF911F910F910C943911FC0183
:102780004485463150F5483028F04E3030F4EBE6C1
:10279000F0E005C0EDE6F0E002C0ECE6F0E05081CC
:1027A000483040F481E090E0042E01C0880F0A9484
:1027B000EAF710C0242F30E04E3018F428503109C9
:1027C00002C02E50310981E090E0022E01C0880F36
:1027D0000A94EAF780958523808308952EEB31E0F3
:1027E000FC01318320830C94BF131F920F920FB60C
:1027F0000F9211242F933F938F939F93AF93BF9387
:1028000080916B0390916C03A0916D03B0916E0366
:1028100030916A0323E0230F2D3720F40196A11D88
:10282000B11D05C026E8230F0296A11DB11D2093FE
:102830006A0380936B0390936C03A0936D03B09332
:102840006E0380916F0390917003A0917103B0911A
:1028500072030196A11DB11D80936F0390937003C5
:10286000A0937103B0937203BF91AF919F918F9129
:102870003F912F910F900FBE0F901F9018952FB77B
:10288000F89460916B0370916C0380916D0390914B
:102890006E032FBF08950197009739F0880F991F95
:1028A000880F991F02970197F1F70895789484B5DE
:1028B000826084BD84B5816084BD85B5826085BD3C
:1028C00085B5816085BDEEE6F0E080818160808322
:1028D000E1E8F0E010828081826080838081816005
:1028E0008083E0E8F0E0808181608083E1EBF0E0CC
:1028F000808184608083E0EBF0E080818160808370
:10290000EAE7F0E080818460808380818260808358
:102910008081816080838081806880831092C10083
:102920000895833081F028F4813099F08230A1F04D
:1029300008958630A9F08730B9F08430D1F48091C1
:1029400080008F7D03C0809180008F77809380000E
:10295000089584B58F7702C084B58F7D84BD0895B6
:102960008091B0008F7703C08091B0008F7D8093FD
:10297000B0000895CF93DF9390E0FC01EA5CFE4F36
:102980002491FC01E65BFE4F8491882349F190E09D
:10299000880F991FFC01EE58FE4FA591B4918859FC
:1029A0009E4FFC01C591D4919FB7611108C0F89466
:1029B0008C91209582238C93888182230AC0623077
:1029C00051F4F8948C91322F309583238C93888125
:1029D000822B888304C0F8948C91822B8C939FBFA8
:1029E000DF91CF9108950F931F93CF93DF931F92A1
:1029F000CDB7DEB7282F30E0F901EE5DFE4F8491B0
:102A0000F901EA5CFE4F1491F901E65BFE4F049177
:102A10000023C9F0882321F069830E949114698101
:102A2000E02FF0E0EE0FFF1FE859FE4FA591B491A3
:102A30009FB7F8948C91611103C01095812301C058
:102A4000812B8C939FBF0F90DF91CF911F910F919E
:102A50000895CF93DF93282F30E0F901EE5DFE4F0C
:102A60008491F901EA5CFE4FD491F901E65BFE4FD7
:102A7000C491CC2391F081110E949114EC2FF0E0CD
:102A8000EE0FFF1FE25AFE4FA591B4912C912D231A
:102A900081E090E021F480E002C080E090E0DF91EE
:102AA000CF910895CF92DF92EF92FF920F931F93F1
:102AB000CF93DF9390E0FC01EA5CFE4FD491FC01E0
:102AC000E65BFE4F7491611102C0C0E001C0CD2FE2
:102AD000DA01C901BF70672F70E0660F771F625A75
:102AE0007E4F00E010E09801FB01E590F490F701C3
:102AF00040814D234C131EC0680179014FEFC41A69
:102B0000D40AE40AF40A081719072A073B0709F44C
:102B100042C097018601E8CF68017901FFEFCF1A23
:102B2000DF0AEF0AFF0A081719072A073B0799F17E
:102B300097018601FB01E590F490F70140814D2358
:102B40004C13EACF801B910BA20BB30B20E030E0BB
:102B5000A901FB01E590F490F701F080FD22FC1241
:102B60000AC0281739074A075B07A9F02F5F3F4FB4
:102B70004F4F5F4FEECFA5E1B0E00E94531F605F63
:102B80007F4F8F4F9F4F24E0969587957795679558
:102B90002A95D1F703C060E070E0CB01DF91CF91BF
:102BA0001F910F91FF90EF90DF90CF9008958E309E
:102BB00008F08E5087702091140190E4299F9001B5
:102BC0001124822B80937C0080917A008064809312
:102BD0007A0080917A0086FDFCCF80917800209168
:102BE000790090E0922B08951F93CF93DF93182FD5
:102BF000EB0161E00E94BA14209711F460E004C078
:102C0000CF3FD10539F461E0812FDF91CF911F9142
:102C10000C94F314E12FF0E0EE5DFE4FE491E3300D
:102C2000F9F048F4E130B9F0E230A1F584B5806202
:102C300084BDC8BD34C0E630E9F0E73019F1E430B6
:102C400049F580918000806280938000D0938B0052
:102C5000C0938A0024C084B5806884BDC7BD1FC0EE
:102C600080918000806880938000D0938900C09319
:102C7000880015C08091B00080688093B000C09338
:102C8000B3000DC08091B00080628093B000C0930B
:102C9000B40005C0C038D1050CF0B5CFAFCFDF917F
:102CA000CF911F9108958230E8F4E82FF0E0EE0F05
:102CB000FF1FED58FC4F71836083813041F080919C
:102CC00069008C7F842B80936900E89A0895809135
:102CD0006900440F551F440F551F837F842B809339
:102CE0006900E99A08951F920F920FB60F9211246E
:102CF0002F933F934F935F936F937F938F939F9304
:102D0000AF93BF93EF93FF938091730390917403FC
:102D1000892B29F0E0917303F09174030995FF91D9
:102D2000EF91BF91AF919F918F917F916F915F9143
:102D30004F913F912F910F900FBE0F901F901895BC
:102D40001F920F920FB60F9211242F933F934F9320
:102D50005F936F937F938F939F93AF93BF93EF9303
:102D6000FF938091750390917603892B29F0E09170
:102D70007503F09176030995FF91EF91BF91AF91A3
:102D80009F918F917F916F915F914F913F912F9183
:102D90000F900FBE0F901F9018950E9456140E941E
:102DA000550DC6EAD7E10E94EF0D2097E1F30E948E
:102DB000A617F9CFFC0124853585F901E05CFF4FAA
:102DC00080819181329620813181821B930B8F7398
:102DD00099270895FC0184859585FC01E05CFF4FEF
:102DE000408151813296208131814217530741F051
:102DF0000190F081E02DE80FF91F808190E00895A7
:102E00008FEF9FEF0895FC0184859585FC01E05CC0
:102E1000FF4F408151813296208131814217530703
:102E200079F0A081B181A80FB91F8C9120813181E7
:102E30002F5F3F4F2F7333273183208390E0089516
:102E40008FEF9FEF0895FC0181A1882329F0A489C9
:102E5000B5898C9186FFFBCF11A20895CF93DF93A4
:102E6000FC0126853785D901A05CBF4F8D919C91CF
:102E7000119701968F739927E901CE5BDF4F488147
:102E8000598184179507D9F30D90BC91A02DA20FFD
:102E9000B31F6C93A685B785A05CBF4F11969C931A
:102EA0008E93A689B7892C9181E090E0078C02C0AF
:102EB000880F991F0A94E2F7282B2C9381E081A3B5
:102EC0000488F589E02D80818064808381E090E032
:102ED000DF91CF91089508951F920F920FB60F9230
:102EE00011242F933F934F938F939F93EF93FF93CF
:102EF0008091C00082FD1CC04091C60080911D04DD
:102F000090911E0401968F73992720911F04309190
:102F100020048217930771F0E0911D04F0911E04C4
:102F2000E352FC4F408390931E0480931D0402C023
:102F30008091C600FF91EF919F918F914F913F91AA
:102F40002F910F900FBE0F901F90189587E793E079
:102F50000E94DA16892B11F00C946B1708951F92BA
:102F60000F920FB60F9211242F933F938F939F933D
:102F7000EF93FF932091D9033091DA038091DB0323
:102F80009091DC032817390731F48091C1008F7DBF
:102F90008093C10014C0E091DB03F091DC03E7569D
:102FA000FC4F20818091DB039091DC0301968F73AD
:102FB00099279093DC038093DB032093C600FF9155
:102FC000EF919F918F913F912F910F900FBE0F9096
:102FD0001F901895CF92DF92EF92FF92CF93DF93DD
:102FE000EC016A017B01411581EE5807610571050D
:102FF000F9F0EC89FD8981E090E008A002C0880F1B
:10300000991F0A94E2F7808360E079E08DE390E015
:10301000A70196010E940C1F215031094109510955
:103020005695479537952795211580E1380798F0F3
:10303000EC89FD89108260E874E88EE190E0A701D8
:1030400096010E940C1F21503109410951095695E2
:10305000479537952795E889F9893083EA89FB896F
:10306000208319A2EE89FF89408181E090E09C01D4
:103070000C8C02C0220F331F0A94E2F7422B4083CC
:10308000EE89FF8940819C010D8C02C0220F331F05
:103090000A94E2F7422B4083EE89FF8940819C012C
:1030A0000E8C02C0220F331F0A94E2F7422B40839A
:1030B000EE89FF8920810F8C02C0880F991F0A9426
:1030C000E2F7809582238083DF91CF91FF90EF908C
:1030D000DF90CF90089510927A031092790388EED2
:1030E00093E0A0E0B0E080937B0390937C03A093F7
:1030F0007D03B0937E038EEC91E0909378038093F0
:1031000077038DED93E0909384038093830389E9A3
:1031100093E0909386038093850385EC90E09093F1
:1031200088038093870384EC90E090938A038093D4
:10313000890380EC90E090938C0380938B0381EC67
:1031400090E090938E0380938D0382EC90E09093B7
:10315000900380938F0386EC90E09093920380938A
:10316000910384E08093930383E08093940387E04A
:103170008093950385E08093960381E08093970385
:103180000895CF92DF92EF92FF920F931F93CF9308
:10319000DF936C017A01EB01E60EF71E00E010E010
:1031A000CE15DF0561F06991D601ED91FC9101909A
:1031B000F081E02DC6010995080F191FF1CFC80154
:1031C000DF91CF911F910F91FF90EF90DF90CF9003
:1031D00008956115710581F0DB010D900020E9F77C
:1031E000AD0141505109461B570BDC01ED91FC919B
:1031F0000280F381E02D099480E090E00895AF9281
:10320000BF92CF92DF92EF92FF920F931F93CF93D3
:10321000DF937C016B01C0E0D0E000E010E0D6015C
:1032200014968D919C911597C817D90788F4D701EA
:10323000ED91FC91A080B180BE01C6010E94921A5E
:10324000682FC701F5010995080F191F2196E7CFCF
:10325000C801DF91CF911F910F91FF90EF90DF9008
:10326000CF90BF90AF900895DC01ED91FC9101905B
:10327000F081E02D09940F931F93CF93DF93EC011E
:103280006DE00E9434198C016AE0CE010E9434196D
:10329000800F911FDF91CF911F910F9108950F9390
:1032A0001F93CF93DF93EC010E94E9188C01CE01AC
:1032B0000E943B19800F911FDF91CF911F910F91B9
:1032C0000895FC01808191810C944E1CCF93DF9373
:1032D000EC0188819981009711F00E944E1C19829F
:1032E00018821D821C821B821A82DF91CF91089561
:1032F0000F931F93CF93DF93EC018B016F5F7F4F91
:10330000888199810E94CD1A009731F09983888332
:103310001B830A8381E001C080E0DF91CF911F9180
:103320000F910895CF93DF93EC0188819981892BC8
:1033300029F08A819B818617970760F4CE010E944D
:103340007819882341F08C819D81892B19F4E881BB
:10335000F981108281E0DF91CF910895EF92FF9281
:103360000F931F93CF93DF93EC017B018A01BA0186
:103370000E949219811104C0CE010E94661907C0F3
:103380001D830C83B701888199810E949B1FCE0108
:10339000DF91CF911F910F91FF90EF900895FC0165
:1033A0001182108213821282158214821682611594
:1033B000710559F0FB0101900020E9F7AF01415080
:1033C0005109461B570B0C94AE190895CF93DF9308
:1033D000EC01FB018617970761F06081718161152F
:1033E000710529F0448155810E94AE1902C00E94E6
:1033F0006619CE01DF91CF910895FC0111821082F0
:10340000138212821582148216820C94E619CF93CD
:10341000DF93EC016115710561F0FB010190002063
:10342000E9F7AF0141505109461B570B0E94AE19F5
:1034300002C00E946619CE01DF91CF910895EF92EC
:10344000FF920F931F93CF93DF93EC017B010C81CD
:103450001D816115710511F480E016C041155105FB
:1034600091F0040F151FB8010E9492198823A1F34F
:10347000288139818C819D81B701820F931F0E9421
:103480009B1F1D830C8381E0DF91CF911F910F91D2
:10349000FF90EF900895FB01448155816081718117
:1034A0000C941F1ACF93DF9300D0CDB7DEB769839A
:1034B0001A8241E050E0BE016F5F7F4F0E941F1AE9
:1034C0000F900F90DF91CF910895CF93DF93EC0190
:1034D0000E94521A811103C0CE010E946619CE01CA
:1034E000DF91CF910895FC0124813581232B31F4A4
:1034F00021E061157105A1F0FB0108C0FC0180818C
:1035000091816115710531F421E0FC0180818823EE
:1035100039F005C00E94921F21E0892B09F020E0BC
:10352000822F0895FC01248135816217730748F4C6
:1035300080819181009729F0FC01E60FF71F8081BF
:10354000089580E008950F931F93CF93DF93EB01CD
:1035500041155105E9F02097D9F0FC01648175818E
:1035600026173707A0F4621B730B8A01015011095B
:103570006017710708F48B01FC0160817181620F93
:10358000731FA801CE010E94A21FC00FD11F188275
:10359000DF91CF911F910F9108956F927F928F923B
:1035A0009F92AF92BF92CF92DF92EF92FF920F93D2
:1035B0001F93CF93DF93EC01CB01209781F4DF9130
:1035C000CF911F910F91FF90EF90DF90CF90BF9020
:1035D000AF909F908F907F906F900C94B61BFE01E0
:1035E000E60FF71F9E0122503109E217F30708F496
:1035F000ACC0D9010D911C91119706171707B8F0AF
:103600000530110508F49FC0A80144505109461720
:10361000570708F498C002501109061B170B0193B5
:1036200011936D937C93CF010E944E1C8CC05B0163
:10363000A01AB10A4E01800E911EA0912304B091F0
:103640002404612C712C60E070E0109709F449C0EB
:10365000A815B905C9F5ED90FC901197670142E0F6
:10366000C40ED11CCA14DB0478F147018A189B08E8
:10367000640142E0C40ED11C1296BC9012971396BE
:10368000AC91B5E0CB16D10440F0B282A383918215
:103690008082D9018D939C9309C00E5F1F4F0E0D40
:1036A0001F1DF90111830083EB2DFA2F61157105A0
:1036B00031F0DB011396FC93EE93129744C0F09324
:1036C0002404E09323043FC06D917C91119766160A
:1036D000770608F43B01BD0112960D90BC91A02D18
:1036E000B4CF609121047091220468157905E9F442
:1036F00068167906D0F440911501509116014115D4
:10370000510541F44DB75EB76091190170911A01EE
:10371000461B570BE417F507C0F4F0932204E0931F
:103720002104F901918380830EC00E94B61B7C01A5
:10373000009759F0A801BE010E94891FCE010E9486
:103740004E1CC70104C0CE0102C080E090E0DF91B2
:10375000CF911F910F91FF90EF90DF90CF90BF908E
:10376000AF909F908F907F906F900895CF93DF934D
:103770008230910510F482E090E0E0912304F09112
:10378000240420E030E0A0E0B0E0309739F140813F
:10379000518148175907B8F04817590771F48281C9
:1037A0009381109729F013969C938E9312972CC0B7
:1037B000909324048093230427C02115310531F010
:1037C0004217530718F0A901DB0101C0EF019A016C
:1037D000BD01DF010280F381E02DD7CF2115310536
:1037E000F9F0281B390B2430310580F48A819B8144
:1037F0006115710521F0FB019383828304C09093CE
:10380000240480932304FE01329644C0FE01E20F9B
:10381000F31F8193919322503109398328833AC051
:103820002091210430912204232B41F4209117018F
:103830003091180130932204209321042091150126
:10384000309116012115310541F42DB73EB7409155
:10385000190150911A01241B350BE0912104F091BC
:103860002204E217F307A0F42E1B3F0B2817390799
:1038700078F0AC014E5F5F4F2417350748F04E0FCC
:103880005F1F50932204409321048193919302C0BF
:10389000E0E0F0E0CF01DF91CF910895CF93DF9387
:1038A000009709F487C0FC01329713821282C091FD
:1038B0002304D0912404209781F420813181280FA2
:1038C000391F80912104909122048217930779F582
:1038D000F0932204E09321046DC0DE0120E030E08B
:1038E000AE17BF0750F412964D915C9113979D014E
:1038F0004115510509F1DA01F3CFB383A283408169
:103900005181840F951F8A179B0771F48D919C91AB
:103910001197840F951F02969183808312968D9143
:103920009C911397938382832115310529F4F09399
:103930002404E09323043EC0D9011396FC93EE9334
:1039400012974D915D91A40FB51FEA17FB0779F40B
:1039500080819181840F951F0296D90111969C93C5
:103960008E938281938113969C938E931297E0E0BD
:10397000F0E08A819B81009719F0FE01EC01F9CFFC
:10398000CE01029628813981820F931F2091210454
:10399000309122042817390769F4309729F41092DE
:1039A00024041092230402C013821282D0932204B2
:1039B000C0932104DF91CF9108955058BB27AA27C7
:1039C0000ED075C166D130F06BD120F031F49F3F3D
:1039D00011F41EF45BC10EF4E095E7FB51C1E92F31
:1039E00077D180F3BA17620773078407950718F039
:1039F00071F49EF58FC10EF4E0950B2EBA2FA02D19
:103A00000B01B90190010C01CA01A0011124FF278B
:103A1000591B99F0593F50F4503E68F11A16F04086
:103A2000A22F232F342F4427585FF3CF4695379585
:103A30002795A795F0405395C9F77EF41F16BA0B4A
:103A4000620B730B840BBAF09150A1F0FF0FBB1FF8
:103A5000661F771F881FC2F70EC0BA0F621F731F41
:103A6000841F48F4879577956795B795F7959E3F9E
:103A700008F0B3CF9395880F08F09927EE0F97952C
:103A800087950895D9D008F481E008950CD00FC12E
:103A900007D140F0FED030F021F45F3F19F0F0C0C4
:103AA000511139C1F3C014D198F39923C9F35523A7
:103AB000B1F3951B550BBB27AA2762177307840721
:103AC00038F09F5F5F4F220F331F441FAA1FA9F3D7
:103AD00033D00E2E3AF0E0E830D091505040E695C9
:103AE000001CCAF729D0FE2F27D0660F771F881F2A
:103AF000BB1F261737074807AB07B0E809F0BB0B19
:103B0000802DBF01FF2793585F4F2AF09E3F51053C
:103B100068F0B6C000C15F3FECF3983EDCF38695D9
:103B200077956795B795F7959F5FC9F7880F911DB2
:103B30009695879597F90895E1E0660F771F881F9E
:103B4000BB1F621773078407BA0720F0621B730B51
:103B5000840BBA0BEE1F88F7E095089504D06894A3
:103B6000B111D9C00895BCD088F09F5790F0B92FFB
:103B70009927B751A0F0D1F0660F771F881F991FC2
:103B80001AF0BA95C9F712C0B13081F0C3D0B1E0D4
:103B90000895C0C0672F782F8827B85F39F0B93FE4
:103BA000CCF3869577956795B395D9F73EF49095C4
:103BB0008095709561957F4F8F4F9F4F0895E89442
:103BC00009C097FB3EF490958095709561957F4F65
:103BD0008F4F9F4F9923A9F0F92F96E9BB27939513
:103BE000F695879577956795B795F111F8CFFAF423
:103BF000BB0F11F460FF1BC06F5F7F4F8F4F9F4F54
:103C000016C0882311F096E911C0772321F09EE8B1
:103C1000872F762F05C0662371F096E8862F70E017
:103C200060E02AF09A95660F771F881FDAF7880FF1
:103C30009695879597F90895990F0008550FAA0B47
:103C4000E0E8FEEF16161706E807F907C0F01216AF
:103C50001306E407F50798F0621B730B840B950BB2
:103C600039F40A2661F0232B242B252B21F4089507
:103C70000A2609F4A140A6958FEF811D811D0895A4
:103C800097F99F6780E870E060E008959FEF80EC0F
:103C9000089500240A9416161706180609060895B2
:103CA00000240A9412161306140605060895092E18
:103CB0000394000C11F4882352F0BB0F40F4BF2B87
:103CC00011F460FF04C06F5F7F4F8F4F9F4F0895C7
:103CD00057FD9058440F551F59F05F3F71F04795BD
:103CE000880F97FB991F61F09F3F79F087950895A2
:103CF000121613061406551FF2CF4695F1DF08C0C1
:103D0000161617061806991FF1CF869571056105DD
:103D100008940895E894BB2766277727CB0197F985
:103D200008958ADF08F48FEF08950BD0C0CFB1DF7C
:103D300028F0B6DF18F0952309F0A2CFA7CF112401
:103D4000EACFC6DFA0F3959FD1F3950F50E0551F42
:103D5000629FF001729FBB27F00DB11D639FAA27E0
:103D6000F00DB11DAA1F649F6627B00DA11D661F2F
:103D7000829F2227B00DA11D621F739FB00DA11D50
:103D8000621F839FA00D611D221F749F3327A00D0A
:103D9000611D231F849F600D211D822F762F6A2FA6
:103DA00011249F5750408AF0E1F088234AF0EE0F2B
:103DB000FF1FBB1F661F771F881F91505040A9F738
:103DC0009E3F510570F05CCFA6CF5F3FECF3983E6D
:103DD000DCF3869577956795B795F795E7959F5F9F
:103DE000C1F7FE2B880F911D9695879597F9089539
:103DF00097FB072E16F4009407D077FD09D00E9498
:103E00005E1F07FC05D03EF4909581959F4F089565
:103E1000709561957F4F0895A1E21A2EAA1BBB1BD6
:103E2000FD010DC0AA1FBB1FEE1FFF1FA217B30786
:103E3000E407F50720F0A21BB30BE40BF50B661F9C
:103E4000771F881F991F1A9469F760957095809560
:103E500090959B01AC01BD01CF010895052E97FB04
:103E60001EF400940E94451F57FD07D00E940C1FAE
:103E700007FC03D04EF40C94451F509540953095A7
:103E800021953F4F4F4F5F4F0895909580957095C6
:103E900061957F4F8F4F9F4F0895EE0FFF1F059045
:103EA000F491E02D09940E94721FA59F900DB49F7C
:103EB000900DA49F800D911D11240895AA1BBB1B7A
:103EC00051E107C0AA1FBB1FA617B70710F0A61B1A
:103ED000B70B881F991F5A95A9F780959095BC013B
:103EE000CD010895A29FB001B39FC001A39F700DA3
:103EF000811D1124911DB29F700D811D1124911DF2
:103F000008959111F0C4803219F089508550D0F78E
:103F10000895FB01DC0102C001900D924150504018
:103F2000D8F70895FB01DC018D91019080190110F3
:103F3000D9F3990B0895FB01DC0101900D9200204B
:103F4000E1F70895FB01DC014150504048F0019039
:103F50000D920020C9F701C01D9241505040E0F77A
:103F60000895AEE0B0E0E7EBFFE10C948C250D89FD
:103F70001E8986E08C831A8309838FEF9FE79E83D7
:103F80008D83AE01475E5F4F6F89788DCE010196BC
:103F90000E94EC1FEF81F885E00FF11F10822E9632
:103FA000E4E00C94A825AEE0B0E0E9EDFFE10C946C
:103FB0008E2585E08C838B899C899A838983AE01C9
:103FC000495E5F4F6D897E89CE0101960E943C2338
:103FD0002E96E2E00C94AA25ACE0B0E0E2EFFFE11F
:103FE0000C947E257C016B018A01FC0117821682EC
:103FF000838181FFBDC1CE0101964C01F701938100
:10400000F60193FD859193FF81916F01882309F457
:10401000ABC1853239F493FD859193FF81916F0196
:10402000853229F4B70190E00E94D524E7CF512CC6
:10403000312C20E02032A0F48B3269F030F4803251
:1040400059F0833269F420612CC08D3239F080330D
:1040500039F4216026C02260246023C0286021C07A
:1040600027FD27C030ED380F3A3078F426FF06C020
:10407000FAE05F9E300D1124532E13C08AE0389E63
:10408000300D1124332E20620CC08E3221F426FD17
:104090006BC1206406C08C3611F4206802C08836DB
:1040A00041F4F60193FD859193FF81916F01811198
:1040B000C1CF982F9F7D9554933028F40C5F1F4FEC
:1040C000FFE3F9830DC0833631F0833771F0833518
:1040D00009F05BC022C0F801808189830E5F1F4F09
:1040E00044244394512C540115C03801F2E06F0E62
:1040F000711CF801A080B18026FF03C0652D70E01F
:1041000002C06FEF7FEFC5012C870E948C242C0129
:1041100083012C852F77222E17C03801F2E06F0E15
:10412000711CF801A080B18026FF03C0652D70E0EE
:1041300002C06FEF7FEFC5012C870E9481242C0104
:104140002C852068222E830123FC1BC0832D90E048
:1041500048165906B0F4B70180E290E00E94D524D9
:104160003A94F4CFF50127FC859127FE81915F01F8
:10417000B70190E00E94D52431103A94F1E04F1A33
:1041800051084114510471F7E5C0843611F08936A5
:1041900039F5F80127FF07C0608171818281938121
:1041A0000C5F1F4F08C060817181882777FD809563
:1041B000982F0E5F1F4F2F76B22E97FF09C0909554
:1041C0008095709561957F4F8F4F9F4F2068B22EDD
:1041D0002AE030E0A4010E942025A82EA81844C09F
:1041E000853729F42F7EB22E2AE030E025C0F22F49
:1041F000F97FBF2E8F36C1F018F4883579F0B4C03E
:10420000803719F0883721F0AFC02F2F2061B22EF0
:10421000B4FE0DC08B2D8460B82E09C024FF0AC0E7
:104220009F2F9660B92E06C028E030E005C020E13F
:1042300030E002C020E132E0F801B7FE07C0608143
:104240007181828193810C5F1F4F06C060817181F3
:1042500080E090E00E5F1F4FA4010E942025A82E51
:10426000A818FB2DFF77BF2EB6FE0BC02B2D2E7F7F
:10427000A51450F4B4FE0AC0B2FC08C02B2D2E7E4B
:1042800005C07A2C2B2D03C07A2C01C0752C24FF7D
:104290000DC0FE01EA0DF11D8081803311F4297EED
:1042A00009C022FF06C07394739404C0822F8678DD
:1042B00009F0739423FD13C020FF06C05A2C731419
:1042C00018F4530C5718732C731468F4B70180E278
:1042D00090E02C870E94D52473942C85F5CF73141D
:1042E00010F4371801C0312C24FF12C0B70180E34D
:1042F00090E02C870E94D5242C8522FF17C021FF37
:1043000003C088E590E002C088E790E0B7010CC0E8
:10431000822F867859F021FD02C080E201C08BE235
:1043200027FD8DE2B70190E00E94D524A51438F452
:10433000B70180E390E00E94D5245A94F7CFAA9465
:10434000F401EA0DF11D8081B70190E00E94D524AF
:10435000A110F5CF332009F451CEB70180E290E0EF
:104360000E94D5243A94F6CFF7018681978102C046
:104370008FEF9FEF2C96E2E10C949A2520FD09C067
:10438000FC0123FD05C022FF02C0738362835183B9
:104390004083089544FD10C046FD10C0DB01FC01C0
:1043A000AA0FBB1FEE1FFF1F1094D1F76A0F7B1FD0
:1043B0008E1F9F1F31E003C033E001C034E0660F61
:1043C000771F881F991F3150D1F7620F711D811D12
:1043D000911D08950F931F93CF93DF938C01C80114
:1043E0000E949724EC0197FD08C00E94811F892B31
:1043F000B1F7B801CE010E940725CE01DF91CF9120
:104400001F910F9108958F929F92AF92CF92DF925A
:10441000EF92FF920F931F93CF93DF93EC01A62EA1
:104420004A01022F0E949724AC0155274B325105B7
:1044300021F04D32510551F40068AA9411F480E046
:1044400067C0CE010E94972497FDF9CF102F1D7FE2
:10445000302F307301F58033F1F4FF24FA94FA0C15
:1044600009F442C0CE010E94972497FD3DC0382F29
:104470003F7D383551F41264AA94AA94A9F1CE0173
:104480000E94972497FF07C02FC006FF02C012604A
:1044900001C01261AF2CC12CD12C760120ED280F68
:1044A000283080F014FF04C0BE010E94072519C007
:1044B0002A3040F016FFF8CF2F7D3FEE320F363016
:1044C00098F72750412FC701B6010E94CA216B01FE
:1044D0007C011260AA9459F0CE010E94972497FFA4
:1044E000DDCF11FD04C0ABCFC12CD12C760117FF5D
:1044F00008C0F094E094D094C094C11CD11CE11C7D
:10450000F11C212FB701A601C4010E94BE2181E048
:10451000DF91CF911F910F91FF90EF90DF90CF909F
:10452000AF909F908F900895A1E2B0E0EAE9F2E2A7
:104530000C9483255C017A018E010F5F1F4F680187
:1045400080E2D8011D928A95E9F7F501738040E079
:1045500050E0812CB0E0912C81E090E0F90173FCF7
:10456000A59173FEA1918F017A2F9F01A11103C024
:1045700080E090E07DC0AE3519F44115510559F148
:10458000E92DF0E0E417F5073CF4AD3569F1AD3203
:1045900019F4BB2319F103C0B11101C08A2EE72F12
:1045A000E695E695E69586010E0F111DF801A72FF9
:1045B000A7708C0102C0000F111FAA95E2F7D80165
:1045C000B081BA2BB083781559F0781510F47F5F5D
:1045D000E6CF7150E4CF9924939403C0B1E001C0B9
:1045E000B0E04F5F5F4FBACFBB2319F08E8180627E
:1045F0008E83911003C09924939415C0F601CE01C7
:104600008196208120952193E817F907D1F7F3CF00
:10461000E114F10429F0D7018C93F70131967F0161
:10462000615001F1912CC50169A30E94972469A1F1
:1046300097FD16C0282F269526952695F601E20FA0
:10464000F11D208130E0AC014770552702C035953F
:1046500027954A95E2F720FDDBCFB5010E9407259B
:10466000911086CFE114F10411F0D7011C92C8011A
:10467000A196EDE00C949F254F925F927F928F92CE
:104680009F92AF92BF92CF92DF92EF92FF920F93E1
:104690001F93CF93DF931F92CDB7DEB78C012B0111
:1046A0007A01FC0117821682A12CF801D380F20155
:1046B000D3FC8591D3FE8191382F2F01882309F4F3
:1046C000FCC090E039830E94811F3981892B21F041
:1046D000C8010E94EA21E9CF353241F4F201D3FC4E
:1046E0003591D3FE31912F01353269F4C8013983F8
:1046F0000E949724398197FDDEC03817B1F2B801C6
:104700000E940725DAC03A3241F4D3FC3591D3FE3A
:1047100031912F01BB24B39401C0B12C712C20ED39
:10472000230F2A3090F4FB2DF260BF2E672D70E02E
:1047300080E090E040E20E94CA21762EF201D3FC94
:104740003591D3FE31912F01EACFB1FE03C0711034
:1047500003C0B3C077247A94383619F03C3661F040
:1047600014C0F201D3FC3591D3FE31912F013836BC
:1047700061F4FB2DF860BF2E8B2D8460B82EF20102
:10478000D3FC3591D3FE31912F01332309F495C029
:10479000632F70E08CE791E039830E9476243981A1
:1047A000892B09F48AC0B0FC07C0F701C080D18012
:1047B000C70102967C0102C0C12CD12C3E3651F4B7
:1047C000F8014681578160E070E02B2DC6010E9400
:1047D000BE216BCF3336A1F4B1FC02C077247394B1
:1047E000C8010E94972497FD66C0C114D10429F026
:1047F000F6018083C60101966C017A9489F757C04F
:104800003B3559F49201A601672DC8010E949422FC
:104810002C01009709F04BC045C0C80139830E94A4
:10482000EA21398197FD47C03F3669F128F43436D3
:1048300031F1393679F12BC0333769F03537F9F07A
:1048400026C0C114D10429F0F6018082C601019668
:104850006C017A9471F0C8010E9497244C0197FD75
:1048600008C00E94811F892B61F3B801C4010E9416
:104870000725C114D104D9F0F601108218C0FB2D10
:10488000F062BF2E07C08B2D8061B82E03C09B2D18
:104890009064B92E2B2DA601672DC8010E9403221A
:1048A000811105C0F8018381807329F406C0B0FC32
:1048B000FCCEA394FACEAA2019F08A2D90E002C073
:1048C0008FEF9FEF0F90DF91CF911F910F91FF908E
:1048D000EF90DF90CF90BF90AF909F908F907F90A0
:1048E0005F904F900895992788270895FC010590BF
:1048F000061621F00020D9F7C00108953197CF01A5
:104900000895FC010590615070400110D8F7809522
:1049100090958E0F9F1F0895FC016150704001908B
:104920000110D8F7809590958E0F9F1F0895CF9313
:10493000DF93EC012B8120FF33C026FF0AC02F7BC1
:104940002B838E819F8101969F838E838A8190E045
:1049500029C022FF0FC0E881F9818081992787FD56
:104960009095009719F420622B831AC03196F98331
:10497000E8830EC0EA85FB85099597FF09C02B8166
:10498000019611F480E101C080E2822B8B8308C084
:104990002E813F812F5F3F4F3F832E83992702C097
:1049A0008FEF9FEFDF91CF9108950F931F93CF93D8
:1049B000DF93182F092FEB018B8181FD03C08FEF4F
:1049C0009FEF20C082FF10C04E815F812C813D810E
:1049D000421753077CF4E881F9819F012F5F3F4F15
:1049E00039832883108306C0E885F985812F0995CE
:1049F000892B29F72E813F812F5F3F4F3F832E83E5
:104A0000812F902FDF91CF911F910F910895FB017E
:104A1000238120FF12C026FD10C08F3F3FEF930778
:104A200061F082832F7D206423832681378121508A
:104A3000310937832683992708958FEF9FEF0895D3
:104A4000FA01AA27283051F1203181F1E8946F93BF
:104A50006E7F6E5F7F4F8F4F9F4FAF4FB1E03ED065
:104A6000B4E03CD0670F781F891F9A1FA11D680F03
:104A7000791F8A1F911DA11D6A0F711D811D911D36
:104A8000A11D20D009F468943F912AE0269F1124AB
:104A90003019305D3193DEF6CF010895462F47700F
:104AA000405D4193B3E00FD0C9F7F6CF462F4F706A
:104AB000405D4A3318F0495D31FD4052419302D0C8
:104AC000A9F7EACFB4E0A69597958795779567956E
:104AD000BA95C9F700976105710508959B01AC016E
:104AE0000A2E06945795479537952795BA95C9F795
:104AF000620F731F841F951FA01D08952F923F9270
:104B00004F925F926F927F928F929F92AF92BF92DD
:104B1000CF92DF92EF92FF920F931F93CF93DF9389
:104B2000CDB7DEB7CA1BDB0B0FB6F894DEBF0FBEE6
:104B3000CDBF09942A88398848885F846E847D8433
:104B40008C849B84AA84B984C884DF80EE80FD8035
:104B50000C811B81AA81B981CE0FD11D0FB6F894AB
:104B6000DEBF0FBECDBFED01089511E0CEE8D1E06C
:104B700004C0FE010E944F1F2296C039D107C9F719
:044B8000F894FFCFD7
:104B84009A99993ECDCC4C3E0900070005000900D6
:104B940006000A0001000025048000526561636874
:104BA400656420706F736974696F6E005374617209
:104BB4007465640031002D32302C20353000320011
:104BC40033002D32302C2038300034002D32302C7C
:104BD4002031303000360037002D32302C20313275
:104BE4003000380039002D3230202C31353000713E
:104BF400002D39302C20383000770065002D3930F5
:104C04002C20383500720074002D39302C203930B6
:104C140000790075002D39302C20393500393020C9
:104C24002C3935006F002D3930202C313030007094
:104C34000025692C25692C25690000000000C1119C
:104C4400C118FF10C410E5101711000000002E1742
:0A4C5400C118DA160317EA16231739
:00000001FF
