:100000000C94C5000C9499160C94C6160C945912B5
:100010000C947D120C94A1120C94ED000C94ED0044
:100020000C94ED000C94ED000C94ED000C94ED009C
:100030000C94ED000C94ED000C94ED000C94ED008C
:100040000C941B140C94ED000C9492170C94D5177F
:100050000C94ED000C94ED000C94ED000C94ED006C
:100060000C94ED000C94ED001E102F1035103E1076
:10007000471062107510BA10BA101010A210AB1011
:1000800000C201000100110011000C0000E100009D
:100090000A00250025002100009600001900390003
:1000A00039003600127A00001F0046004600440066
:1000B0008070000022004D004D004A00004B0000FF
:1000C0003600750075007200403800004A009C0040
:1000D0009C009900802500007200EC00EC00E90013
:1000E000C0120000E900DA01DA01D701600900005E
:1000F000D701B603B603B303B0040000B3036E0721
:100100006E076B07580200006E07DC0EDC0ED80E7F
:100110002C010000DC0EC11DC11DBE1D000000072A
:1001200000020100000304060000000000000000BF
:10013000010204081020408001020408102001027E
:10014000040810200404040404040404020202024B
:100150000202030303030303000000002300260040
:10016000290000000000250028002B0000000000EE
:10017000240027002A006364696E6F7073757858D5
:100180005B00EE0BE90D9118040E11241FBECFEF9A
:10019000D8E0DEBFCDBF11E0A0E0B1E0E0E2FFE4D7
:1001A00002C005900D92A63FB107D9F724E0A6EF53
:1001B000B1E001C01D92A034B207E1F711E0C8E838
:1001C000D1E004C02297FE010E941D21C238D10750
:1001D000C9F70E94F3160C9483270C9400002F9209
:1001E0003F924F925F926F927F928F929F92AF92C7
:1001F000BF92CF92DF92EF92FF920F931F93CF9314
:10020000DF93CDB7DEB72B970FB6F894DEBF0FBEE6
:10021000CDBF9B878A87DC01D896BC91B983B11189
:1002200002C01982E2C00E9465146A837B838C83BA
:100230009D83EA85FB8580A191A1A2A1B3A14A81FA
:100240005B816C817D81481B590B6A0B7B0B84A5FC
:1002500095A5A6A5B7A5481759076A077B0708F310
:10026000028CF38DE02D80809180A280B380AA85DE
:10027000BB855E96ED91FC915F97A501940160812D
:100280007181828193810E94A71E2B013C01EA8526
:10029000FB8520893189428953890E945F20AA8584
:1002A000BB8594962D913D914D915C9197970E94BD
:1002B000A81E6B017C01EA85FB8564A375A386A358
:1002C00097A324A835A806A917A99101A8010E94FF
:1002D0005B2018161CF4C101D80118C0AA85BB8583
:1002E000D0968D919D910D90BC91A02D8E839F8372
:1002F000A887B9879C01AD01C701B6010E940C1FF8
:1003000087FF0AC08E819F81A885B985EA85FB8514
:1003100084A395A3A6A3B7A3AA85BB851C962D91FC
:100320003D914D915C911F97C301B2010E945F20E6
:10033000EA85FB8524A135A146A157A10E94A81EEC
:100340006B017C01AA85BB8598962D913D914D91BD
:100350005C919B97C501B4010E94A71EEA85FB85AD
:1003600024893589468957890E945F209B01AC0109
:10037000C701B6010E94A71E6B017C019101A80173
:100380000E945B201816BCF0AA85BB85D0962C90E5
:10039000D097D1963C90D197D2960C91D297D39684
:1003A0001C919101A801B601C7010E940C1F87FD95
:1003B00002C016018701AA85BB855C96ED91FC9170
:1003C0005D97C101D80180839183A283B383EA85BD
:1003D000FB8580A691A6A2A6B3A68A819B81AC814B
:1003E000BD8180A391A3A2A3B3A389812B960FB64D
:1003F000F894DEBF0FBECDBFDF91CF911F910F915B
:10040000FF90EF90DF90CF90BF90AF909F908F9034
:100410007F906F905F904F903F902F9008952F9214
:100420003F924F925F926F927F928F929F92AF9284
:10043000BF92CF92DF92EF92FF920F931F93CF93D1
:10044000DF9300D000D0CDB7DEB71C012A013B01FD
:100450004801590120E030E0A901C301B2010E9426
:100460000C1F87FD78C020E030E0A901C501B40170
:100470000E940C1F87FD6FC020E030E0A901C7017A
:10048000B6010E940C1F87FD66C0F10140825182B7
:100490006282738284829582A682B782C086D18668
:1004A000E286F38664A575A586A597A50E94A91F77
:1004B00020E030E04AE754E40E94101F69837A8309
:1004C0008B839C83F10144865586668677869B01E3
:1004D000AC01C501B4010E945F204B015C01F10138
:1004E000608B718B828B938B29813A814B815C81EC
:1004F000C701B6010E94101F6B017C01F101648BE2
:10050000758B868B978B808D918D019721F5A3013B
:10051000920160E070E0CB010E94A71EF1016487A8
:10052000758786879787A501940160E070E0CB010D
:100530000E94A71EF101608B718B828B938BA701A8
:10054000960160E070E0CB010E94A71EF101648B70
:10055000758B868B978B0F900F900F900F90DF917C
:10056000CF911F910F91FF90EF90DF90CF90BF90B0
:10057000AF909F908F907F906F905F904F903F9043
:100580002F9008958F929F92AF92BF92CF92DF9259
:10059000EF92FF92CF93DF93EC0116161706ACF59E
:1005A0006B01EE24D7FCE094FE2CC701B6010E943B
:1005B000AB1F4B015C016CA57DA58EA59FA50E947C
:1005C000A91F9B01AC01C501B4010E94101F4B0182
:1005D0005C019B01AC01688979898A899B890E94A9
:1005E0005F20688B798B8A8B9B8BA50194016C892A
:1005F0007D898E899F890E94101F6C8B7D8B8E8BCD
:100600009F8BCCA6DDA6EEA6FFA6DF91CF91FF9033
:10061000EF90DF90CF90BF90AF909F908F90089514
:100620002F923F924F925F926F927F928F929F9202
:10063000AF92BF92CF92DF92EF92FF920F931F93F0
:10064000CF93DF93EC016A017B0148015901A901B5
:100650009801C701B6010E945B2087FF4EC0C8AA5F
:10066000D9AAEAAAFBAA8CAA9DAAAEAABFAA88AD5B
:10067000882309F442C02C8C3D8CF10140805180CC
:1006800062807380A5019401C301B2010E945B20C6
:10069000181634F4F10180829182A282B3820DC0D7
:1006A000A7019601C301B2010E940C1F87FF05C07C
:1006B000F101C082D182E282F3828CA09DA0AEA023
:1006C000BFA0CCA8DDA8EEA8FFA8A7019601C50190
:1006D000B4010E945B20181664F0C8A8D9A8EAA843
:1006E000FBA8A7019601C501B4010E940C1F87FF5A
:1006F00004C0CCA2DDA2EEA2FFA2DF91CF911F9198
:100700000F91FF90EF90DF90CF90BF90AF909F90B0
:100710008F907F906F905F904F903F902F900895B3
:100720008F929F92AF92BF92CF92DF92EF92FF9201
:10073000CF93DF93EC01EC8DFD8DC080D180E28002
:10074000F380CCA2DDA2EEA2FFA2EA8DFB8D808118
:100750009181A281B38188A799A7AAA7BBA78CA8DA
:100760009DA8AEA8BFA8A5019401C701B6010E942B
:100770005B20181664F088A899A8AAA8BBA8A501B0
:100780009401C701B6010E940C1F87FF04C08CA210
:100790009DA2AEA2BFA2DF91CF91FF90EF90DF901C
:1007A000CF90BF90AF909F908F9008951F93CF935D
:1007B000DF93EC0111E06130710509F010E088ADC4
:1007C00091E08927181303C0CE010E94900318AF4F
:1007D000DF91CF911F9108950F931F93CF93DF93D4
:1007E000EC018B0188AD882361F1888D998D6817A4
:1007F000790739F12C853D854E855F8560E070E095
:10080000CB010E94A71E6C877D878E879F872889D2
:1008100039894A895B8960E070E0CB010E94A71E9C
:10082000688B798B8A8B9B8B2C893D894E895F895C
:1008300060E070E0CB010E94A71E6C8B7D8B8E8BDD
:100840009F8B198F088FDF91CF911F910F91089582
:100850004F925F926F927F928F929F92AF92BF92D0
:10086000CF92DF92EF92FF920F931F93CF93DF937C
:1008700000D000D0CDB7DEB74C0127013801A982E6
:10088000BA82CB82DC82FC01558F448F738F628FDA
:10089000378F268F10AE10AA11AA12AA13AA80E0D1
:1008A00090E0AFE7B3E484AB95ABA6ABB7AB84E61F
:1008B00090E0A0E0B0E084A795A7A6A7B7A76B8DAE
:1008C0007C8DC4010E94EC03CF88D88CE98CFA8C13
:1008D00009811A812B813C81B301A201C4010E94CC
:1008E0000F020E946514F40144A455A466A477A4E1
:1008F000641975098609970960A371A382A393A35C
:100900000F900F900F900F90DF91CF911F910F914B
:10091000FF90EF90DF90CF90BF90AF909F908F901F
:100920007F906F905F904F9008954F925F926F927B
:100930007F928F929F92AF92BF92CF92DF92EF926F
:10094000FF920F931F93CF93DF93EC0162337105F6
:100950003CF08B01673971052CF006E910E002C00C
:1009600002E310E0B801882777FD8095982F0E9458
:10097000AB1F2B013C0166277727601B710B882773
:1009800077FD8095982F0E94AB1F4B015C0193016E
:100990008201AB01BC018AE892E00E94100386E06C
:1009A00093E00E94220DBE01882777FD8095982F45
:1009B0000E94AB1F26E636E642E151E40E945F202A
:1009C0006B017C016093E7027093E8028093E90277
:1009D0009093EA0293018201B501A40181E592E0BE
:1009E0000E94100382E193E00E94220DC092D30284
:1009F000D092D402E092D502F092D602D093FC02BB
:100A0000C093FB028DECC82E8CECD82EED2C8DE320
:100A1000F82E9701860140E050E060EA70E48AE831
:100A200092E00E940F029701860140E050E060EAE8
:100A300070E481E592E00E940F02C12CD12C760176
:100A40000DEC1CEC2CEC3DE340E050E060E87FE373
:100A500080E092E00E940F0281E08093EC0280939C
:100A6000EB02DF91CF911F910F91FF90EF90DF90FC
:100A7000CF90BF90AF909F908F907F906F905F903E
:100A80004F9008954F925F926F927F928F929F92B4
:100A9000AF92BF92CF92DF92EF92FF920F931F938C
:100AA000CF93DF9300D000D0CDB7DEB76B017C01D0
:100AB000403551053CF08A01453651052CF004E6DD
:100AC00010E002C000E510E0B801882777FD8095AE
:100AD000982F0E94AB1F2B013C0166277727601BD4
:100AE000710B882777FD8095982F0E94AB1F698333
:100AF0007A838B839C8393018201AB01BC018AE8DA
:100B000092E00E94100386E093E00E94220D24E10F
:100B10003EEA47E85FE3C701B6010E945F204B0150
:100B20005C01DC01CB01B0588093E7029093E802AE
:100B3000A093E902B093EA029301820149815A81AC
:100B40006B817C8181E592E00E94100382E193E059
:100B50000E94220D8092D3029092D402A092D502DC
:100B6000B092D602C701B6010E94781F7093FC02B2
:100B70006093FB029DECC92E9CECD92E9CE4E92EDF
:100B80009DE3F92E00E010E0980140E050E060E1C4
:100B900071E48AE892E00E940F0200E010E0980100
:100BA00040E050E060E171E481E592E00E940F02D4
:100BB000C12CD12C760197018601B701A60180E0F6
:100BC00092E00E940F0281E08093EC028093EB029E
:100BD0000F900F900F900F90DF91CF911F910F9179
:100BE000FF90EF90DF90CF90BF90AF909F908F904D
:100BF0007F906F905F904F9008950F931F9361E0E7
:100C000070E08AE892E00E94D60361E070E081E53E
:100C100092E00E94D60361E070E08AE892E00E94D0
:100C2000C20261E070E081E592E00E94C20200E051
:100C300010E026E133E440E050E066E173EC8AE83E
:100C400092E00E94100300E010E026E133E440E06F
:100C500050E066E173EC81E592E00E94100361E0F0
:100C600070E080E092E00E94D60361E070E080E0F6
:100C700092E00E94C20200E010E020E231E440E095
:100C800050E060E271EC80E092E00E9410031F915E
:100C90000F910895CF93DF9361E0809106010E9448
:100CA000E01461E0809102010E94E01461E0809113
:100CB00008010E94E01461E0809104010E94E014A8
:100CC000C0E0D1E061E088810E94E01461E08881A9
:100CD000DF91CF910C941915CF93DF93FB01208105
:100CE00031818A36FFEF9F07A4F0EC018739910527
:100CF00014F0C6E9D0E0209759F52630310519F4F3
:100D000060E070E013C025303105B9F560E070E0B7
:100D10001AC0CAE6DFEF2630310551F460E086E004
:100D20000E941915662777276C1B7D0B8AE00CC083
:100D30002530310511F561E085E00E94191566271F
:100D400077276C1B7D0B89E0DF91CF910C941A16ED
:100D50001C161D0604F72630310531F461E086E0EB
:100D60000E941915BE01E2CF2530310531F460E053
:100D700085E00E941915BE01E6CFDF91CF9108955D
:100D80001092EC021092EB0266E071E080E090E0DD
:100D90000E946C0662E071E080E090E00E946C06C8
:100DA00086E093E00E94BC0C6093E7027093E80237
:100DB0008093E9029093EA0282E193E00E94BC0CE6
:100DC0006093D3027093D4028093D5029093D6029D
:100DD0001092F9021092FA020895CF92DF92EF92E8
:100DE000FF922091E3023091E4024091E50250919C
:100DF000E6026091E7027091E8028091E902909129
:100E0000EA020E94A71E6B017C0120E030E0A901EC
:100E10000E945B2018165CF420E030E040EA50E4C9
:100E2000C701B6010E940C1F18165CF425C020E013
:100E300030E040EA50ECC701B6010E945B2087FD1C
:100E400012C08091F70181110EC00E946514609359
:100E5000FC017093FD018093FE019093FF0181E0FE
:100E60008093F70139C020E030E0A901C701B60145
:100E70000E945B2018165CF420E030E040EA50E469
:100E8000C701B6010E940C1F18165CF425C020E0B3
:100E900030E040EA50ECC701B6010E945B2087FDBC
:100EA0001BC08091F7018823B9F00E946514C0909F
:100EB000FC01D090FD01E090FE01F090FF016C1963
:100EC0007D098E099F096B3F71058105910520F011
:100ED0001092F70181E001C080E0FF90EF90DF9079
:100EE000CF900895CF92DF92EF92FF922091CF02A0
:100EF0003091D0024091D1025091D2026091D30240
:100F00007091D4028091D5029091D6020E94A71EC2
:100F10006B017C0120E030E0A9010E945B201816E3
:100F20005CF420E030E040EA50E4C701B6010E94E2
:100F30000C1F18165CF425C020E030E040EA50ECAD
:100F4000C701B6010E945B2087FD12C08091F601A7
:100F500081110EC00E9465146093F8017093F9012D
:100F60008093FA019093FB0181E08093F60139C0F0
:100F700020E030E0A901C701B6010E945B201816ED
:100F80005CF420E030E040EA50E4C701B6010E9482
:100F90000C1F18165CF425C020E030E040EA50EC4D
:100FA000C701B6010E945B2087FD1BC08091F6013E
:100FB0008823B9F00E946514C090F801D090F9011F
:100FC000E090FA01F090FB016C197D098E099F09F0
:100FD0006B3F71058105910520F01092F60181E0CB
:100FE00001C080E0FF90EF90DF90CF9008950E94C5
:100FF000ED06882381F00E947207882361F08091BA
:10100000EC02882341F061E171E082E993E00E9403
:1010100077190C94C00608954F925F926F927F9259
:101020008F929F92AF92BF92CF92DF92EF92FF92F8
:10103000CF93DF9300D000D0CDB7DEB786E093E04A
:101040000E94BC0C6093E3027093E4028093E5027B
:101050009093E60282E193E00E94BC0C69837A835C
:101060008B839C836B017C01F7FAF094F7F8F09482
:10107000C092CF02D092D002E092D102F092D2027E
:101080004090E7025090E8026090E9027090EA0216
:101090008090E3029090E402A090E502B090E60216
:1010A000A5019401C301B2010E945B2018162CF423
:1010B000A5019401C301B20104C0A3019201C501BD
:1010C000B4010E94A71E20E030E040E85FE30E94E8
:1010D000A81E6093D7027093D8028093D902909390
:1010E000DA028090D3029090D402A090D502B09002
:1010F000D602A7019601C501B4010E945B20181613
:101100004CF429813A814B815C81C501B4010E9474
:10111000A81E06C0A5019401C701B6010E94A71E22
:1011200020E030E040E85FE30E94A81E6093C30225
:101130007093C4028093C5029093C6028091FB0213
:101140009091FC02181619068CF42091D702309168
:10115000D8024091D9025091DA026091C302709195
:10116000C4028091C5029091C60210C02091C302B2
:101170003091C4024091C5025091C6026091D702DD
:101180007091D8028091D9029091DA020E94A71E34
:1011900060933D0270933E0280933F029093400221
:1011A00080E092E00E94EF008AE892E00E94EF0067
:1011B000882309F42BC18091EC02882309F426C10D
:1011C00081E592E00E94EF00882309F41FC180911D
:1011D000EB02882309F41AC1C0903902D0903A0278
:1011E000E0903B02F0903C0220E030E0A901C70112
:1011F000B6010E945B2018160CF025C18090CB022E
:101200009090CC02A090CD02B090CE0220E030E0D1
:10121000A901C501B4010E945B2018160CF00AC197
:1012200020E030E0A9016091DF027091E00280913E
:10123000E1029091E2020E945B2018160CF003C1BB
:101240006AE271E082E993E00E945A196091CB0250
:101250007091CC028091CD029091CE020E94781FB5
:10126000DC01CB0162E071E00E946C062091390242
:1012700030913A0240913B0250913C026091DF0272
:101280007091E0028091E1029091E2020E94A71E1B
:101290000E94781FDC01CB0166E071E00E946C06C1
:1012A0008091CB029091CC02A091CD02B091CE0260
:1012B0008093C7029093C802A093C902B093CA0258
:1012C0002091390230913A0240913B0250913C0208
:1012D0006091DF027091E0028091E1029091E20260
:1012E0000E94A71E6093DB027093DC028093DD02F4
:1012F0009093DE0268E271E082E993E00E945A195D
:101300004091DF025091E0026091E1027091E202AF
:1013100022E030E082E993E00E94171B6CE271E06A
:1013200082E993E00E945A194091DB025091DC025D
:101330006091DD027091DE0222E030E082E993E00C
:101340000E94171B60E371E082E993E00E945A1942
:101350004091CB025091CC026091CD027091CE02AF
:1013600022E030E082E993E00E94171B64E371E021
:1013700082E993E00E945A194091C7025091C80235
:101380006091C9027091CA0222E030E082E993E0E4
:101390000E94171B68E371E082E993E00E945A19EA
:1013A00040913D0250913E0260913F027091400297
:1013B00022E030E082E993E00E94171B6CE371E0C9
:1013C00082E993E00E945A194091410250914202F1
:1013D000609143027091440222E030E082E993E0A0
:1013E0000E94171B60E471E082E993E00E945A19A1
:1013F0004091390250913A0260913B0270913C0257
:1014000022E030E082E993E00E94191B0F900F90D8
:101410000F900F90DF91CF91FF90EF90DF90CF90E2
:10142000BF90AF909F908F907F906F905F904F9004
:101430000C94F70720E030E0A901C501B4010E9437
:101440000C1F87FDEDCE20E030E0A901C701B601F9
:101450000E940C1F87FF6DC020E030E0A901609161
:10146000CB027091CC028091CD029091CE020E946D
:101470005B2018160CF05DC08090DF029090E002B7
:10148000A090E102B090E20220E030E0A901C501A5
:10149000B4010E945B2018164CF020E030E0A90156
:1014A000C501B4010E940C1F87FF43C062E271E0D6
:1014B00082E993E00E945A192091390230913A0250
:1014C00040913B0250913C026091CB027091CC0262
:1014D0008091CD029091CE020E94A81E0E94781F9A
:1014E000DC01CB0162E071E00E946C066091DF02DA
:1014F0007091E0028091E1029091E2020E94781FD7
:10150000DC01CB0166E071E00E946C06209139029B
:1015100030913A0240913B0250913C026091CB02E3
:101520007091CC028091CD029091CE020E94A81EB3
:10153000FCC020E030E0A901C701B6010E945B2099
:1015400018160CF07DC08090CB029090CC02A09039
:10155000CD02B090CE0220E030E0A901C501B40177
:101560000E940C1F87FD0AC020E030E0A901C501E0
:10157000B4010E945B2018160CF062C020E030E03D
:10158000A9016091DF027091E0028091E1029091E7
:10159000E2020E940C1F87FF53C064E271E082E9FF
:1015A00093E00E945A196091CB027091CC02809115
:1015B000CD029091CE020E94781FDC01CB0162E047
:1015C00071E00E946C062091390230913A024091FC
:1015D0003B0250913C026091DF027091E0028091E9
:1015E000E1029091E2020E94A81E0E94781FDC0195
:1015F000CB0166E071E00E946C068091CB02909175
:10160000CC02A091CD02B091CE028093C7029093FC
:10161000C802A093C902B093CA0220913902309146
:101620003A0240913B0250913C026091DF0270917E
:10163000E0028091E1029091E2020E94A81E52CE47
:1016400020E030E0A901C701B6010E940C1F87FF0E
:1016500075C020E030E0A9016091CB027091CC020E
:101660008091CD029091CE020E940C1F87FF66C030
:10167000C090DF02D090E002E090E102F090E20240
:1016800020E030E0A901C701B6010E940C1F87FDD0
:101690000AC020E030E0A901C701B6010E945B202A
:1016A00018160CF04BC066E271E082E993E00E94EC
:1016B0005A192091390230913A0240913B025091DF
:1016C0003C026091CB027091CC028091CD0290914E
:1016D000CE020E94A71E0E94781FDC01CB0162E0AF
:1016E00071E00E946C066091DF027091E0028091CF
:1016F000E1029091E2020E94781FDC01CB0166E0DA
:1017000071E00E946C062091390230913A024091BA
:101710003B0250913C026091CB027091CC028091CF
:10172000CD029091CE020E94A71E6093C7027093D3
:10173000C8028093C9029093CA0236C063E971E07F
:1017400082E993E00E945A196091CB027091CC0219
:101750008091CD029091CE020E94781FDC01CB01D6
:1017600062E071E00E946C066091DF027091E0021D
:101770008091E1029091E2020E94781FDC01CB018E
:1017800066E071E00E946C068091CB029091CC02E1
:10179000A091CD02B091CE028093C7029093C8026F
:1017A000A093C902B093CA028091DF029091E00237
:1017B000A091E102B091E2028093DB029093DC02FF
:1017C000A093DD02B093DE0295CD8091EC028111F1
:1017D00003C08091EB02089581E00895AF92BF921B
:1017E000CF92DF92EF92FF920F931F93A090F1029E
:1017F000B090F202C090F302D090F402E090F502B3
:10180000F090F6020091F7021091F8021F921F92D9
:101810008091F0028F938091EF028F938091EE027E
:101820008F938091ED028F9327EE32E04FED52E0DF
:1018300063EE72E08AE892E00E942804A090F10230
:10184000B090F202C090F302D090F402E090F50262
:10185000F090F6020091F7021091F8021F921F9289
:101860008091F0028F938091EF028F938091EE022E
:101870008F938091ED028F9323ED32E04BEC52E099
:101880006FEC72E081E592E00E942804A09049028A
:10189000B0904A02C0904B02D0904C02E0904D02B2
:1018A000F0904E0200914F02109150021F921F9231
:1018B000809148028F93809147028F9380914602D6
:1018C0008F93809145028F9321E432E049E352E007
:1018D0006DE372E080E092E00E9428040E946514AB
:1018E0006093FC017093FD018093FE019093FF01D2
:1018F0000E9465146093F8017093F9018093FA01D6
:101900009093FB018DB79EB742960FB6F8949EBF99
:101910000FBE8DBF1F910F91FF90EF90DF90CF9082
:10192000BF90AF900895FC01108211821282138241
:1019300010861186128613860895CF93DF93EC01EB
:101940006230710529F06330710529F481E001C02E
:1019500080E090E002C08FEF9FEF8C839D835F83D8
:101960004E8343E050E0B9010E94791660E08E8119
:10197000DF91CF910C94E014FC0160857185828524
:1019800093850895FC014087518762877387089586
:10199000FC0186810E944F1521E0892B09F420E08B
:1019A000822F089582E193E00E94C80C20E030E08D
:1019B00040E85FE3882359F060911A0370911B039C
:1019C00080911C0390911D030E94A81E0AC0609183
:1019D0001A0370911B0380911C0390911D030E94B8
:1019E000A71E60931A0370931B0380931C039093AC
:1019F0001D03089586E093E00E94C80C20E030E0CB
:101A000040E85FE3882359F060910E0370910F0363
:101A100080911003909111030E94A71E0AC060914B
:101A20000E0370910F0380911003909111030E9497
:101A3000A81E60930E0370930F038093100390937E
:101A400011030895FC0110861186128613860895ED
:101A50008FEF92E00E942B1B8EE193E00E942B1BE4
:101A600085E293E00C941414CF93C82F60E00E9499
:101A7000E0148C2FCF910C944F15CF93C82F60E0BA
:101A80000E94E0148C2FCF910C94FD151F93CF93DF
:101A9000DF93182FEB0161E00E94E014BE0188275C
:101AA00077FD8095982F0E94AB1FC1E020E030E0C9
:101AB00040E85FE30E940C1F8111C0E06C2F812F72
:101AC000DF91CF911F910C9419151F93CF93DF9342
:101AD000182FEB0161E00E94E014BE01812FDF911D
:101AE000CF911F910C941A1640E855E260E070E027
:101AF00085E293E00C944313CF93C82F61E00E94DA
:101B0000E01460E08C2F0E94191584E090E00E94A0
:101B1000711461E08C2F0E9419158AE090E00E94F8
:101B2000711460E08C2F0E94191560E08C2F0E94C8
:101B3000E01420EA36E841E050E061E08C2F0E949A
:101B4000781522E030E040E050E00E94FC20CA011D
:101B5000B9010E94AB1F2DEC3CEC48EE51E40E9411
:101B6000101F0E94781FCB01CF91089540E052ECE6
:101B700061E070E082E993E00E94101862E370E097
:101B80008FEF92E00E945C1B0E94740D22ED3CE0FE
:101B900044E050E063E070E082E193E00E949D0C3D
:101BA0002AEF3CE048E050E062E070E086E093E03D
:101BB0000E949D0C0E944A060E94FD058091FD0234
:101BC000882331F064E471E082E993E00C947719A2
:101BD000089520E04CE06BE085E293E00E9413134F
:101BE00065EF71E08EE193E00E94991B82E193E042
:101BF0000E94930C86E093E00E94930C65EF71E0E5
:101C00008FEF92E00C94991B0C94280DCF93DF93E7
:101C1000D1E082E993E00E940017892B79F082E9F4
:101C200093E00E942917C82F682F8FEF92E00E943F
:101C30001C1CCA3071F7D093FE02EBCFDF91CF911D
:101C40000895AF92BF92CF92DF92EF92FF920F93DF
:101C50001F93CF93DF93CDB7DEB7C654D1090FB62C
:101C6000F894DEBF0FBECDBF0E94060E8091FD022C
:101C7000882309F483C16AE271E08FEF92E00E9449
:101C80003D1C882349F06CE471E082E993E00E94F6
:101C9000771962E370E023C062E271E08FEF92E0B7
:101CA0000E943D1C882359F06DE471E082E993E0C5
:101CB0000E94771964E170E084E190E012C064E270
:101CC00071E08FEF92E00E943D1C882391F064E563
:101CD00071E082E993E00E94771960E570E08CEE94
:101CE0009FEF0E94950460E070E08FEF92E00E9409
:101CF000D11B66E271E08FEF92E00E943D1C8823C9
:101D000049F065E571E082E993E00E94771960E5AA
:101D100070E025C063E971E08FEF92E00E943D1C06
:101D2000882369F06CE571E082E993E00E947719FD
:101D300064E670E08CEE9FEF0E94950493C065E628
:101D400071E08FEF92E00E943D1C882359F06DE511
:101D500071E082E993E00E94771964E670E084E123
:101D600090E0EACF67E671E08FEF92E00E943D1CC1
:101D7000882349F069E671E082E993E00E947719CF
:101D800068E770E0D7CF62E771E08FEF92E00E94E2
:101D90003D1C882349F06AE671E082E993E00E94E5
:101DA000771968E770E0DBCF64E771E08FEF92E0CE
:101DB0000E943D1C882349F066E771E082E993E0C8
:101DC0000E94771966E970E0B5CF63E671E08FEFA6
:101DD00092E00E943D1C882349F067E771E082E9A8
:101DE00093E00E94771966E970E0B9CF6FE771E080
:101DF0008FEF92E00E943D1C882349F061E871E07A
:101E000082E993E00E94771942E350E025C069E837
:101E100071E08FEF92E00E943D1C882369F062E838
:101E200071E082E993E00E94771942E350E060E0BC
:101E300070E084EB92E414C06BE871E08FEF92E005
:101E40000E943D1C8823A1F06DE871E082E993E0D7
:101E50000E94771940E550E060E070E084EB92EC7E
:101E60000E94420560E070E08FEF92E00E94D11B7B
:101E700065E971E08FEF92E00E943D1C882349F0F4
:101E80006EE871E082E993E00E94771940E550E046
:101E900069C067E971E08FEF92E00E943D1C8823E2
:101EA00049F069E971E082E993E00E94771944E61C
:101EB00050E043C061EA71E08FEF92E00E943D1C68
:101EC000882349F06AE971E082E993E00E9477197A
:101ED00044E650E047C063EA71E08FEF92E00E9471
:101EE0003D1C882349F065EA71E082E993E00E9495
:101EF000771948E750E021C066EC71E08FEF92E07F
:101F00000E943D1C882349F06DEA71E082E993E06C
:101F10000E94771948E750E025C06EE271E08FEF2C
:101F200092E00E943D1C882369F064EB71E082E935
:101F300093E00E94771946E950E060E070E084EB9E
:101F400092EC14C06DEB71E08FEF92E00E943D1CAB
:101F50008823A1F065EB71E082E993E00E94771994
:101F600046E950E060E070E084EB92E40E944205B4
:101F700060E070E08FEF92E00E94D11B0E94E50BC1
:101F800081110E940C088091FD02811111C1809184
:101F9000FE02882309F40CC120E030E042E350E067
:101FA0008E010F5F1F4FB8018FEF92E00E946D1CF2
:101FB0007E0181E4E80EF11CFF92EF926E0193E442
:101FC000C90ED11CDF92CF925E01A5E4AA0EB11C0E
:101FD000BF92AF928FEB91E09F938F931F930F93DC
:101FE0000E94A12165EF71E0CE01CA960E94991B63
:101FF00064E170E0CE01CA960E945C1B0FB6F894B3
:10200000DEBF0FBECDBFD501ED91FC910E5C1F4F21
:10201000EC30F10508F0AEC0EC5CFF4F0C941B21D6
:102020006EE173E0C8010E94C71BB801CE01CA96D9
:102030000E94151CC8010E942B1B9CC0F6018081C8
:1020400091810E94340D892B19F06AE271E002C07F
:1020500063E671E0CE01CA960E94D11B8BC0D60107
:102060008D919C910E943D0D17C0F7016081718197
:10207000D6018D919C910E94460D7CC0F701608134
:102080007181D6018D919C910E94650D73C0F601FE
:10209000808191810E947C0D9F938F9385EC91E0CC
:1020A0009F938F931F930F930E947F21B801CE01BE
:1020B000CA960E94D11B0F900F900F900F900F9017
:1020C0000F9058C0D7016D917C9177FF03C086E0D7
:1020D00093E012C0882777FD8095982F0E94AB1F50
:1020E000AB01BC0186E093E02AC0D7016D917C91E1
:1020F00077FF1BC082E193E00E94BC0C9F938F93FB
:102100007F936F9385EC91E09F938F931F930F9331
:102110000E947F21B801CE01CA960E94D11B0FB642
:10212000F894DEBF0FBECDBF25C0882777FD809510
:10213000982F0E94AB1FAB01BC0182E193E00E948B
:10214000C20C18C0D7016D917C91F60180819181FC
:102150000E9495040FC0D701ED90FC90F6016081BC
:102160007181882777FD8095982F0E94AB1FA7016A
:102170000E944205BE01665C7F4FC8010E94C71BDA
:102180006AE0C8010E942F1CBC0182E993E00E9412
:102190002519C8010E942B1B1092FE0265EF71E009
:1021A0008FEF92E00E94D11BCE01CA960E942B1B9A
:1021B000CA5BDF4F0FB6F894DEBF0FBECDBFDF9115
:1021C000CF911F910F91FF90EF90DF90CF90BF9034
:1021D000AF90089520918303309184032817390725
:1021E000B9F49091410380914203981789F0E091EE
:1021F0004103F0E0ED5BFC4F80812091410330E032
:102200002F5F3F4F2F7333272093410390E00895B2
:102210008FEF9FEF08952091830330918403281757
:10222000390781F49091410380914203981751F04E
:10223000E0914103F0E0ED5BFC4F8081992787FD41
:10224000909508958FEF9FEF08952091830330912B
:1022500084032817390771F48091420320914103C8
:1022600090E0805C9F4F821B910960E470E00E94C7
:10227000C620089580E090E0089520918303309176
:1022800084032817390739F48FB7F8941092420362
:10229000109241038FBF0895DC015196ED91FC919E
:1022A0005297208150968C91809582238083089547
:1022B00020E001972FEF8F3F9207D9F708952091E3
:1022C0008303309184032817390789F0FC01238D9B
:1022D0002E7F238F2FB7F894109242031092410360
:1022E00090938403809383032FBF81E0089580E05F
:1022F0000895EF92FF920F931F93CF93DF93EC011A
:102300008B8DEE85FF859D8581FF04C080818923AB
:1023100029F447C08081892309F043C08B899C89B7
:102320000E94581108E010E0EE24E394F12C8D890E
:102330009E890E945811EE85FF8580819D858923A5
:1023400011F0FE2803C08E2D8095F822EE0C01506E
:1023500011090115110559F78F89988D0E9458119F
:102360008B8D81FDF094809142032091410390E098
:1023700001968F73992730E08217930779F0E091E7
:102380004203F0E0ED5BFC4FF0828091420390E06D
:1023900001968F7399278093420303C08B8D8160D0
:1023A0008B8FDF91CF911F910F91FF90EF90089548
:1023B000611102C00C944C11DC015196ED91FC911D
:1023C0005297208150968C91282B20830895DF927C
:1023D000EF92FF920F931F93CF93DF93EC01E62EC2
:1023E000898D9A8D892B39F481E090E09B838A83D3
:1023F00080E090E04DC0DFB6F8946B8D669561701B
:10240000CE010E94D811898D9A8D05960E9458118F
:102410008B8D08E010E0FF24F39481FF19C08F2D0D
:102420008E2121F0CE010E944C1104C061E0CE014A
:102430000E94D811898D9A8D0E945811FF0C01506D
:1024400011090115110559F7CE010E944C1119C04F
:102450008F2D8E2129F061E0CE010E94D81103C09A
:10246000CE010E944C11898D9A8D0E945811FF0C4B
:10247000015011090115110559F761E0CE010E94C3
:10248000D811DFBE898D9A8D0E94581181E090E0AD
:10249000DF91CF911F910F91FF90EF90DF90089502
:1024A0008091830390918403009711F00C9479112B
:1024B00008951F920F920FB60F9211242F933F93FE
:1024C0004F935F936F937F938F939F93AF93BF933C
:1024D000EF93FF930E945012FF91EF91BF91AF9144
:1024E0009F918F917F916F915F914F913F912F912C
:1024F0000F900FBE0F901F9018951F920F920FB65E
:102500000F9211242F933F934F935F936F937F9379
:102510008F939F93AF93BF93EF93FF930E945012BB
:10252000FF91EF91BF91AF919F918F917F916F91AB
:102530005F914F913F912F910F900FBE0F901F9081
:1025400018951F920F920FB60F9211242F933F935D
:102550004F935F936F937F938F939F93AF93BF93AB
:10256000EF93FF930E945012FF91EF91BF91AF91B3
:102570009F918F917F916F915F914F913F912F919B
:102580000F900FBE0F901F9018951F93CF93DF935E
:10259000EC01162F61E0812F0E94E01461E0812F91
:1025A0000E941915812F90E0FC01E05DFE4FE4913F
:1025B000E88BFC01EC5BFE4FE491F0E0EE0FFF1FB7
:1025C000EE59FE4F859194919A8B898BDF91CF9133
:1025D0001F9108951F93CF93DF93EC01162F60E0B6
:1025E000812F0E94E0148B8D81FD04C061E0812F5A
:1025F0000E9419151C87812F90E0FC01E05DFE4FC1
:10260000E491ED87FC01EC5BFE4FE491F0E0EE0F0E
:10261000FF1FE85AFE4F859194919F878E87DF9127
:10262000CF911F910895FF920F931F93CF93DF9344
:10263000EC01F62E522F1B821A8208EE13E020E0E6
:1026400030E00C831D832E833F838CEC91E09983D3
:1026500088831C8A1B8A1E8A1D8A188E1F8A1A8EDE
:10266000198E8B8D8E7F50FB81F98B8F642FCE015D
:102670000E94C5126F2DCE01DF91CF911F910F9156
:10268000FF900C94EA120F931F93CF93DF93EC010A
:102690001A8E198E188E1F8A1E8A1D8AA0E8B0E035
:1026A00080E090E0FD01059115912591349104178A
:1026B00015072607370709F031C02CE0289FF001E5
:1026C000299FF00D1124EC57FF4F259134913C8B3D
:1026D0002B8B2CE0289FF001299FF00D1124EA5745
:1026E000FF4F259134913E8B2D8B2CE0289FF001DC
:1026F000299FF00D1124E857FF4F25913491388F11
:102700002F8B2CE0289FF001299FF00D1124E65714
:10271000FF4F859194919A8F898F08C001961C96DE
:102720008D30910509F0BECF1C8A1B8A8F89988D48
:10273000892B09F443C08C858631E0F5209168002F
:10274000883050F091E08E3008F490E081E001C0D4
:10275000880F9A95EAF701C084E0822B8093680085
:102760002C85283038F02E3040F0263148F0E0E05B
:10277000F0E008C0EDE6F0E005C0EBE6F0E002C0F6
:10278000ECE6F0E03081283030F481E001C0880FC1
:102790002A95EAF70DC0822F90E02E3010F40897AA
:1027A00001C00E9791E001C0990F8A95EAF7892F31
:1027B000832B8083898D9A8D0E945811CE01DF91E1
:1027C000CF911F910F910C945F11FC01448546310C
:1027D00050F5483028F04E3030F4EBE6F0E005C01C
:1027E000EDE6F0E002C0ECE6F0E05081483040F465
:1027F00081E090E0042E01C0880F0A94EAF710C02F
:10280000242F30E04E3018F42850310902C02E50E9
:10281000310981E090E0022E01C0880F0A94EAF7A6
:1028200080958523808308952CEC31E0FC01318371
:1028300020830C94E5131F920F920FB60F92112470
:102840002F933F938F939F93AF93BF938091860372
:1028500090918703A0918803B091890330918503FB
:1028600023E0230F2D3720F40196A11DB11D05C0D3
:1028700026E8230F0296A11DB11D209385038093A6
:10288000860390938703A0938803B0938903809174
:102890008A0390918B03A0918C03B0918D030196D4
:1028A000A11DB11D80938A0390938B03A0938C0389
:1028B000B0938D03BF91AF919F918F913F912F91D5
:1028C0000F900FBE0F901F9018952FB7F89460913E
:1028D00086037091870380918803909189032FBFAD
:1028E00008950197009739F0880F991F880F991F55
:1028F00002970197F1F70895789484B5826084BDBA
:1029000084B5816084BD85B5826085BD85B58160F3
:1029100085BDEEE6F0E0808181608083E1E8F0E053
:102920001082808182608083808181608083E0E882
:10293000F0E0808181608083E1EBF0E08081846061
:102940008083E0EBF0E0808181608083EAE7F0E063
:1029500080818460808380818260808380818160C7
:1029600080838081806880831092C10008958330C5
:1029700081F028F4813099F08230A1F008958630FA
:10298000A9F08730B9F08430D1F4809180008F7D38
:1029900003C0809180008F7780938000089584B574
:1029A0008F7702C084B58F7D84BD08958091B0007B
:1029B0008F7703C08091B0008F7D8093B000089521
:1029C000CF93DF9390E0FC01E05DFE4F2491FC018A
:1029D000EC5BFE4F8491882349F190E0880F991FAA
:1029E000FC01E459FE4FA591B4918E599E4FFC0114
:1029F000C591D4919FB7611108C0F8948C9120952E
:102A000082238C93888182230AC0623051F4F89427
:102A10008C91322F309583238C938881822B8883ED
:102A200004C0F8948C91822B8C939FBFDF91CF913F
:102A300008950F931F93CF93DF931F92CDB7DEB707
:102A4000282F30E0F901E45EFE4F8491F901E05D4A
:102A5000FE4F1491F901EC5BFE4F04910023C9F085
:102A6000882321F069830E94B7146981E02FF0E088
:102A7000EE0FFF1FEE59FE4FA591B4919FB7F8944A
:102A80008C91611103C01095812301C0812B8C931F
:102A90009FBF0F90DF91CF911F910F910895CF931A
:102AA000DF93282F30E0F901E45EFE4F8491F901B5
:102AB000E05DFE4FD491F901EC5BFE4FC491CC2355
:102AC00091F081110E94B714EC2FF0E0EE0FFF1F80
:102AD000E85AFE4FA591B4912C912D2381E090E00E
:102AE00021F480E002C080E090E0DF91CF91089572
:102AF000CF92DF92EF92FF920F931F93CF93DF93CA
:102B000090E0FC01E05DFE4FD491FC01EC5BFE4FD8
:102B10007491611102C0C0E001C0CD2FDA01C9017A
:102B2000BF70672F70E0660F771F685A7E4F00E016
:102B300010E09801FB01E590F490F70140814D23EE
:102B40004C131EC0680179014FEFC41AD40AE40A7D
:102B5000F40A081719072A073B0709F442C097012E
:102B60008601E8CF68017901FFEFCF1ADF0AEF0A8B
:102B7000FF0A081719072A073B0799F197018601F1
:102B8000FB01E590F490F70140814D234C13EACF0F
:102B9000801B910BA20BB30B20E030E0A901FB01DD
:102BA000E590F490F701F080FD22FC120AC028178E
:102BB00039074A075B07A9F02F5F3F4F4F4F5F4F21
:102BC000EECFA5E1B0E00E942121605F7F4F8F4FE3
:102BD0009F4F24E096958795779567952A95D1F72D
:102BE00003C060E070E0CB01DF91CF911F910F91A6
:102BF000FF90EF90DF90CF9008958E3008F08E50C8
:102C0000877020910A0190E4299F90011124822B62
:102C100080937C0080917A00806480937A00809118
:102C20007A0086FDFCCF809178002091790090E0B9
:102C3000922B08951F93CF93DF93182FEB0161E040
:102C40000E94E014209711F460E004C0CF3FD1054A
:102C500039F461E0812FDF91CF911F910C94191508
:102C6000E12FF0E0E45EFE4FE491E330F9F048F448
:102C7000E130B9F0E230A1F584B5806284BDC8BD11
:102C800034C0E630E9F0E73019F1E43049F58091DD
:102C90008000806280938000D0938B00C0938A0074
:102CA00024C084B5806884BDC7BD1FC080918000EA
:102CB000806880938000D0938900C093880015C0FD
:102CC0008091B00080688093B000C093B3000DC0C5
:102CD0008091B00080628093B000C093B40005C0C2
:102CE000C038D1050CF0B5CFAFCFDF91CF911F9198
:102CF00008958230E8F4E82FF0E0EE0FFF1FE2576E
:102D0000FC4F71836083813041F0809169008C7F3A
:102D1000842B80936900E89A089580916900440F9C
:102D2000551F440F551F837F842B80936900E99AB8
:102D300008951F920F920FB60F9211242F933F9375
:102D40004F935F936F937F938F939F93AF93BF93B3
:102D5000EF93FF9380918E0390918F03892B29F03D
:102D6000E0918E03F0918F030995FF91EF91BF9150
:102D7000AF919F918F917F916F915F914F913F9113
:102D80002F910F900FBE0F901F9018951F920F92CA
:102D90000FB60F9211242F933F934F935F936F932E
:102DA0007F938F939F93AF93BF93EF93FF93809104
:102DB000900390919103892B29F0E0919003F09179
:102DC00091030995FF91EF91BF91AF919F918F91E1
:102DD0007F916F915F914F913F912F910F900FBE17
:102DE0000F901F9018950E947C140E94B60DCCEC99
:102DF000D7E10E94210E2097E1F30E94CC17F9CF72
:102E0000FC0124853585F901E05CFF4F80819181CB
:102E1000329620813181821B930B8F7399270895FD
:102E2000FC0184859585FC01E05CFF4F4081518168
:102E30003296208131814217530741F00190F08191
:102E4000E02DE80FF91F808190E008958FEF9FEF4C
:102E50000895FC0184859585FC01E05CFF4F40816D
:102E600051813296208131814217530779F0A08138
:102E7000B181A80FB91F8C91208131812F5F3F4F05
:102E80002F7333273183208390E008958FEF9FEFD6
:102E90000895FC0181A1882329F0A489B5898C912A
:102EA00086FFFBCF11A20895CF93DF93FC01268507
:102EB0003785D901A05CBF4F8D919C9111970196E8
:102EC0008F739927E901CE5BDF4F488159818417C1
:102ED0009507D9F30D90BC91A02DA20FB31F6C9351
:102EE000A685B785A05CBF4F11969C938E93A6894B
:102EF000B7892C9181E090E0078C02C0880F991F60
:102F00000A94E2F7282B2C9381E081A30488F589A9
:102F1000E02D80818064808381E090E0DF91CF911B
:102F2000089508951F920F920FB60F9211242F93B8
:102F30003F934F938F939F93EF93FF938091C000A4
:102F400082FD1CC04091C6008091380490913904E4
:102F500001968F73992720913A0430913B04821790
:102F6000930771F0E0913804F0913904E850FC4F78
:102F70004083909339048093380402C08091C60046
:102F8000FF91EF919F918F914F913F912F910F90D2
:102F90000FBE0F901F90189582E993E00E940017D2
:102FA000892B11F00C94911708951F920F920FB670
:102FB0000F9211242F933F938F939F93EF93FF933F
:102FC0002091F4033091F5038091F6039091F7037B
:102FD0002817390731F48091C1008F7D8093C1009B
:102FE00014C0E091F603F091F703EC54FC4F2081FC
:102FF0008091F6039091F70301968F739927909330
:10300000F7038093F6032093C600FF91EF919F9101
:103010008F913F912F910F900FBE0F901F90189599
:10302000CF92DF92EF92FF92CF93DF93EC016A0190
:103030007B01411581EE580761057105F9F0EC89B6
:10304000FD8981E090E008A002C0880F991F0A94D2
:10305000E2F7808360E079E08DE390E0A7019601DC
:103060000E94DA20215031094109510956954795AE
:1030700037952795211580E1380798F0EC89FD896F
:10308000108260E874E88EE190E0A70196010E944A
:10309000DA20215031094109510956954795379554
:1030A0002795E889F9893083EA89FB89208319A269
:1030B000EE89FF89408181E090E09C010C8C02C088
:1030C000220F331F0A94E2F7422B4083EE89FF89D7
:1030D00040819C010D8C02C0220F331F0A94E2F73D
:1030E000422B4083EE89FF8940819C010E8C02C0F7
:1030F000220F331F0A94E2F7422B4083EE89FF89A7
:1031000020810F8C02C0880F991F0A94E2F78095E6
:1031100082238083DF91CF91FF90EF90DF90CF905B
:103120000895109295031092940388EE93E0A0E026
:10313000B0E08093960390939703A0939803B09385
:1031400099038CED91E0909393038093920388EF21
:1031500093E090939F0380939E0384EB93E090937E
:10316000A1038093A00385EC90E09093A303809348
:10317000A20384EC90E09093A5038093A40380ECD9
:1031800090E09093A7038093A60381EC90E0909346
:10319000A9038093A80382EC90E09093AB03809303
:1031A000AA0386EC90E09093AD038093AC0384E097
:1031B0008093AE0383E08093AF0387E08093B003F6
:1031C00085E08093B10381E08093B2030895CF92AC
:1031D000DF92EF92FF920F931F93CF93DF936C01D7
:1031E0007A01EB01E60EF71E00E010E0CE15DF05D8
:1031F00061F06991D601ED91FC910190F081E02D93
:10320000C6010995080F191FF1CFC801DF91CF91B1
:103210001F910F91FF90EF90DF90CF90089561156F
:10322000710581F0DB010D900020E9F7AD014150FF
:103230005109461B570BDC01ED91FC910280F38193
:10324000E02D099480E090E00895AF92BF92CF9274
:10325000DF92EF92FF920F931F93CF93DF937C0146
:103260006B01C0E0D0E000E010E0D60114968D9133
:103270009C911597C817D90788F4D701ED91FC9157
:10328000A080B180BE01C6010E945C1C682FC701EE
:10329000F5010995080F191F2196E7CFC801DF91A5
:1032A000CF911F910F91FF90EF90DF90CF90BF9043
:1032B000AF9008950C940F19DC01ED91FC910190F1
:1032C000F081E02D09940F931F93CF93DF93EC01CE
:1032D0006DE00E945C198C016AE0CE010E945C19CD
:1032E000800F911FDF91CF911F910F9108950F9340
:1032F0001F93CF93DF93EC010E940F198C01CE0135
:103300000E946319800F911FDF91CF911F910F9140
:1033100008958F929F92AF92BF92CF92DF92EF92D9
:10332000FF920F931F93CF93DF93CDB7DEB7A19793
:103330000FB6F894DEBF0FBECDBF7C01C42EE52FC3
:10334000CB01D22E19A221E02D1510F02AE0D22EA9
:103350008E010F5D1F4F8D2C912CA12CB12C6C2D4B
:103360007E2FA50194010E94DA208C2DD29E801917
:103370001124015011098A3014F4805D01C0895C68
:10338000F8018083211531054105510521F0C22E38
:10339000E32FCA01E4CFB801C7010E940F19A1961B
:1033A0000FB6F894DEBF0FBECDBFDF91CF911F9156
:1033B0000F91FF90EF90DF90CF90BF90AF909F90D4
:1033C0008F900895CF92DF92EF92FF920F931F9309
:1033D000CF93DF93EC016A017B012115310579F46C
:1033E000E881F9810190F081E02D642FDF91CF9188
:1033F0001F910F91FF90EF90DF90CF9009942A30AA
:103400003105E9F477FF1AC06DE20E945C198C0166
:1034100044275527BA014C195D096E097F092AE036
:10342000CE010E948919800F911FDF91CF911F91CA
:103430000F91FF90EF90DF90CF9008952AE0B701B1
:10344000A601CE01DF91CF911F910F91FF90EF90D8
:10345000DF90CF900C9489194F925F926F927F9278
:103460008F929F92AF92BF92CF92DF92EF92FF9294
:103470000F931F93CF93DF93EC016A017B01B22E70
:103480009A01AB01C701B6010E94C220882319F03E
:1034900068EE71E027C026013701E89477F82FEF36
:1034A0003FEF4FE75FE7C301B2010E94C2208111E5
:1034B0000DC02FEF3FEF4FE75FE7C301B2010E945E
:1034C0000C1F18161CF46CEE71E00CC02FEF3FEFD0
:1034D0004FE75FE4C701B6010E945B201816ACF409
:1034E00060EF71E0CE01DF91CF911F910F91FF90BE
:1034F000EF90DF90CF90BF90AF909F908F907F9094
:103500006F905F904F900C940F192FEF3FEF4FE7A4
:103510005FECC701B6010E940C1F87FDE1CF20E0E0
:1035200030E0A901C701B6010E940C1F87FF0AC045
:103530006DE2CE010E945C198C01F7FAF094F7F865
:10354000F09402C000E010E0A12C60E070E080E0A8
:103550009FE3AB1441F020E030E040E251E40E94F0
:10356000101FA394F6CF9B01AC01C701B6010E94C6
:10357000A81E6B017C010E947D1F2B013C010E9453
:10358000A91F9B01AC01C701B6010E94A71E6B01D8
:103590007C012AE0B301A201CE010E948919080F23
:1035A000191FBB2039F064EF71E0CE010E940F19A2
:1035B000080F191F7B2C772041F120E030E040E21A
:1035C00051E4C701B6010E945F206B017C010E949B
:1035D000781F4B01AA2497FCA094BA2C2AE030E073
:1035E000B501A401CE010E94E219080F191FC501FF
:1035F000B4010E94AB1F9B01AC01C701B6010E9440
:10360000A71E6B017C017A94D6CFC801DF91CF91C0
:103610001F910F91FF90EF90DF90CF90BF90AF90F0
:103620009F908F907F906F905F904F9008950C9433
:103630002C1A0F931F93CF93DF93EC010E942C1A47
:103640008C01CE010E946319800F911FDF91CF91F1
:103650001F910F910895FC01808191810C94181E97
:10366000CF93DF93EC0188819981009711F00E943C
:10367000181E198218821D821C821B821A82DF91F9
:10368000CF9108950F931F93CF93DF93EC018B019C
:103690006F5F7F4F888199810E94971C009731F05E
:1036A000998388831B830A8381E001C080E0DF91D6
:1036B000CF911F910F910895CF93DF93EC018881F3
:1036C0009981892B29F08A819B818617970760F45D
:1036D000CE010E94421B882341F08C819D81892B61
:1036E00019F4E881F981108281E0DF91CF9108958A
:1036F000EF92FF920F931F93CF93DF93EC017B0127
:103700008A01BA010E945C1B811104C0CE010E9493
:10371000301B07C01D830C83B701888199810E94EB
:103720006921CE01DF91CF911F910F91FF90EF9012
:103730000895FC0111821082138212821582148274
:1037400016826115710559F0FB0101900020E9F71F
:10375000AF0141505109461B570B0C94781B08953B
:10376000CF93DF93EC01FB018617970761F060812F
:1037700071816115710529F0448155810E94781B82
:1037800002C00E94301BCE01DF91CF910895FC0151
:1037900011821082138212821582148216820C9476
:1037A000B01BCF93DF93EC016115710561F0FB0154
:1037B00001900020E9F7AF0141505109461B570B1A
:1037C0000E94781B02C00E94301BCE01DF91CF9176
:1037D0000895EF92FF920F931F93CF93DF93EC0125
:1037E0007B010C811D816115710511F480E016C00B
:1037F0004115510591F0040F151FB8010E945C1B83
:103800008823A1F3288139818C819D81B701820FA2
:10381000931F0E9469211D830C8381E0DF91CF916A
:103820001F910F91FF90EF900895FB014481558106
:10383000608171810C94E91BCF93DF9300D0CDB7E9
:10384000DEB769831A8241E050E0BE016F5F7F4FAF
:103850000E94E91B0F900F90DF91CF910895CF93B5
:10386000DF93EC010E941C1C811103C0CE010E9459
:10387000301BCE01DF91CF910895FC012481358169
:10388000232B31F421E061157105A1F0FB0108C083
:10389000FC01808191816115710531F421E0FC0109
:1038A0008081882339F005C00E94602121E0892BA6
:1038B00009F020E0822F0895FC01248135816217F0
:1038C000730748F480819181009729F0FC01E60F8D
:1038D000F71F8081089580E008950F931F93CF9381
:1038E000DF93EB0141155105E9F02097D9F0FC0178
:1038F0006481758126173707A0F4621B730B8A0158
:10390000015011096017710708F48B01FC016081F7
:103910007181620F731FA801CE010E947021C00F38
:10392000D11F1882DF91CF911F910F9108956F924F
:103930007F928F929F92AF92BF92CF92DF92EF923F
:10394000FF920F931F93CF93DF93EC01CB0120974E
:1039500081F4DF91CF911F910F91FF90EF90DF9055
:10396000CF90BF90AF909F908F907F906F900C946E
:10397000801DFE01E60FF71F9E0122503109E2175C
:10398000F30708F4ACC0D9010D911C9111970617EB
:103990001707B8F00530110508F49FC0A80144507E
:1039A00051094617570708F498C002501109061B21
:1039B000170B019311936D937C93CF010E94181EF6
:1039C0008CC05B01A01AB10A4E01800E911EA0911D
:1039D0003E04B0913F04612C712C60E070E01097C0
:1039E00009F449C0A815B905C9F5ED90FC901197E7
:1039F000670142E0C40ED11CCA14DB0478F1470110
:103A00008A189B08640142E0C40ED11C1296BC9037
:103A100012971396AC91B5E0CB16D10440F0B28268
:103A2000A38391828082D9018D939C9309C00E5FFC
:103A30001F4F0E0D1F1DF90111830083EB2DFA2F6F
:103A40006115710531F0DB011396FC93EE9312972B
:103A500044C0F0933F04E0933E043FC06D917C91DD
:103A600011976616770608F43B01BD0112960D907A
:103A7000BC91A02DB4CF60913C0470913D046815B9
:103A80007905E9F468167906D0F440910B0150915C
:103A90000C014115510541F44DB75EB760910F011E
:103AA00070911001461B570BE417F507C0F4F09313
:103AB0003D04E0933C04F901918380830EC00E9491
:103AC000801D7C01009759F0A801BE010E9457217A
:103AD000CE010E94181EC70104C0CE0102C080E0C2
:103AE00090E0DF91CF911F910F91FF90EF90DF90C9
:103AF000CF90BF90AF909F908F907F906F900895E0
:103B0000CF93DF938230910510F482E090E0E09152
:103B10003E04F0913F0420E030E0A0E0B0E03097B8
:103B200039F14081518148175907B8F048175907B2
:103B300071F482819381109729F013969C938E9350
:103B400012972CC090933F0480933E0427C0211508
:103B5000310531F04217530718F0A901DB0101C00C
:103B6000EF019A01BD01DF010280F381E02DD7CF83
:103B700021153105F9F0281B390B2430310580F46B
:103B80008A819B816115710521F0FB0193838283FA
:103B900004C090933F0480933E04FE01329644C0DB
:103BA000FE01E20FF31F8193919322503109398373
:103BB00028833AC020913C0430913D04232B41F4EA
:103BC00020910D0130910E0130933D0420933C046F
:103BD00020910B0130910C012115310541F42DB7D5
:103BE0003EB740910F0150911001241B350BE0911D
:103BF0003C04F0913D04E217F307A0F42E1B3F0BA9
:103C00002817390778F0AC014E5F5F4F241735074E
:103C100048F04E0F5F1F50933D0440933C04819346
:103C2000919302C0E0E0F0E0CF01DF91CF910895E1
:103C3000CF93DF93009709F487C0FC01329713827A
:103C40001282C0913E04D0913F04209781F42081DC
:103C50003181280F391F80913C0490913D048217D7
:103C6000930779F5F0933D04E0933C046DC0DE01C9
:103C700020E030E0AE17BF0750F412964D915C91F2
:103C800013979D014115510509F1DA01F3CFB38373
:103C9000A28340815181840F951F8A179B0771F47D
:103CA0008D919C911197840F951F0296918380832B
:103CB00012968D919C9113979383828321153105E0
:103CC00029F4F0933F04E0933E043EC0D9011396DB
:103CD000FC93EE9312974D915D91A40FB51FEA17D7
:103CE000FB0779F480819181840F951F0296D90199
:103CF00011969C938E938281938113969C938E93BD
:103D00001297E0E0F0E08A819B81009719F0FE01B4
:103D1000EC01F9CFCE01029628813981820F931FE1
:103D200020913C0430913D042817390769F43097FD
:103D300029F410923F0410923E0402C013821282B2
:103D4000D0933D04C0933C04DF91CF910895505827
:103D5000BB27AA270ED075C166D130F06BD120F0F9
:103D600031F49F3F11F41EF45BC10EF4E095E7FBC4
:103D700051C1E92F77D180F3BA176207730784071F
:103D8000950718F071F49EF58FC10EF4E0950B2E97
:103D9000BA2FA02D0B01B90190010C01CA01A0019D
:103DA0001124FF27591B99F0593F50F4503E68F1F8
:103DB0001A16F040A22F232F342F4427585FF3CF39
:103DC000469537952795A795F0405395C9F77EF40A
:103DD0001F16BA0B620B730B840BBAF09150A1F053
:103DE000FF0FBB1F661F771F881FC2F70EC0BA0FD9
:103DF000621F731F841F48F4879577956795B79561
:103E0000F7959E3F08F0B3CF9395880F08F0992758
:103E1000EE0F979587950895D9D008F481E008951D
:103E20000CD00FC107D140F0FED030F021F45F3F3D
:103E300019F0F0C0511139C1F3C014D198F399238E
:103E4000C9F35523B1F3951B550BBB27AA2762175E
:103E50007307840738F09F5F5F4F220F331F441FA3
:103E6000AA1FA9F333D00E2E3AF0E0E830D09150DB
:103E70005040E695001CCAF729D0FE2F27D0660FC8
:103E8000771F881FBB1F261737074807AB07B0E807
:103E900009F0BB0B802DBF01FF2793585F4F2AF01D
:103EA0009E3F510568F0B6C000C15F3FECF3983EFD
:103EB000DCF3869577956795B795F7959F5FC9F77A
:103EC000880F911D9695879597F90895E1E0660F03
:103ED000771F881FBB1F621773078407BA0720F07C
:103EE000621B730B840BBA0BEE1F88F7E0950895E5
:103EF00004D06894B111D9C00895BCD088F09F5700
:103F000090F0B92F9927B751A0F0D1F0660F771F25
:103F1000881F991F1AF0BA95C9F712C0B13081F005
:103F2000C3D0B1E00895C0C0672F782F8827B85F4D
:103F300039F0B93FCCF3869577956795B395D9F766
:103F40003EF490958095709561957F4F8F4F9F4F70
:103F50000895E89409C097FB3EF49095809570957C
:103F600061957F4F8F4F9F4F9923A9F0F92F96E9C5
:103F7000BB279395F695879577956795B795F1113A
:103F8000F8CFFAF4BB0F11F460FF1BC06F5F7F4FD7
:103F90008F4F9F4F16C0882311F096E911C07723E9
:103FA00021F09EE8872F762F05C0662371F096E8F2
:103FB000862F70E060E02AF09A95660F771F881FC1
:103FC000DAF7880F9695879597F90895990F000865
:103FD000550FAA0BE0E8FEEF16161706E807F907DB
:103FE000C0F012161306E407F50798F0621B730B76
:103FF000840B950B39F40A2661F0232B242B252BF7
:1040000021F408950A2609F4A140A6958FEF811D99
:10401000811D089597F99F6780E870E060E008953A
:104020009FEF80EC089500240A94161617061806D0
:104030000906089500240A941216130614060506AC
:104040000895092E0394000C11F4882352F0BB0F3D
:1040500040F4BF2B11F460FF04C06F5F7F4F8F4FA0
:104060009F4F089557FD9058440F551F59F05F3FDB
:1040700071F04795880F97FB991F61F09F3F79F08A
:1040800087950895121613061406551FF2CF46950C
:10409000F1DF08C0161617061806991FF1CF86958E
:1040A0007105610508940895E894BB276627772772
:1040B000CB0197F908958ADF08F48FEF08950BD0AC
:1040C000C0CFB1DF28F0B6DF18F0952309F0A2CFFA
:1040D000A7CF1124EACFC6DFA0F3959FD1F3950FA8
:1040E00050E0551F629FF001729FBB27F00DB11D7C
:1040F000639FAA27F00DB11DAA1F649F6627B00D0C
:10410000A11D661F829F2227B00DA11D621F739FF4
:10411000B00DA11D621F839FA00D611D221F749F02
:104120003327A00D611D231F849F600D211D822F49
:10413000762F6A2F11249F5750408AF0E1F0882390
:104140004AF0EE0FFF1FBB1F661F771F881F91509D
:104150005040A9F79E3F510570F05CCFA6CF5F3F5E
:10416000ECF3983EDCF3869577956795B795F795D0
:10417000E7959F5FC1F7FE2B880F911D9695879558
:1041800097F9089523DF880B990B089597FB072E65
:1041900016F4009407D077FD09D00E942C2107FC6B
:1041A00005D03EF4909581959F4F08957095619547
:1041B0007F4F0895A1E21A2EAA1BBB1BFD010DC063
:1041C000AA1FBB1FEE1FFF1FA217B307E407F507C7
:1041D00020F0A21BB30BE40BF50B661F771F881FA3
:1041E000991F1A9469F760957095809590959B0139
:1041F000AC01BD01CF010895052E97FB1EF400947C
:104200000E94132157FD07D00E94DA2007FC03D03B
:104210004EF40C94132150954095309521953F4FC5
:104220004F4F5F4F089590958095709561957F4FA2
:104230008F4F9F4F0895EE0FFF1F0590F491E02DD3
:1042400009940E944021A59F900DB49F900DA49FBA
:10425000800D911D11240895AA1BBB1B51E107C0BD
:10426000AA1FBB1FA617B70710F0A61BB70B881F06
:10427000991F5A95A9F780959095BC01CD01089595
:10428000A29FB001B39FC001A39F700D811D112497
:10429000911DB29F700D811D1124911D08959111E2
:1042A000F0C4803219F089508550D0F70895FB0191
:1042B000DC0102C001900D9241505040D8F70895A2
:1042C000FB01DC018D91019080190110D9F3990B4C
:1042D0000895FB01DC0101900D920020E1F70895A3
:1042E000FB01DC014150504048F001900D9200204C
:1042F000C9F701C01D9241505040E0F70895AEE06B
:10430000B0E0E5E8F1E20C945A270D891E8986E0B9
:104310008C831A8309838FEF9FE79E838D83AE0181
:10432000475E5F4F6F89788DCE0101960E94BA215A
:10433000EF81F885E00FF11F10822E96E4E00C94D7
:104340007627AEE0B0E0E7EAF1E20C945C2785E086
:104350008C838B899C899A838983AE01495E5F4FE8
:104360006D897E89CE0101960E940A252E96E2E093
:104370000C947827ACE0B0E0E0ECF1E20C944C2730
:104380007C016B018A01FC0117821682838181FF07
:10439000BDC1CE0101964C01F7019381F60193FD59
:1043A000859193FF81916F01882309F4ABC1853218
:1043B00039F493FD859193FF81916F01853229F442
:1043C000B70190E00E94A326E7CF512C312C20E0CA
:1043D0002032A0F48B3269F030F4803259F083320D
:1043E00069F420612CC08D3239F0803339F42160BA
:1043F00026C02260246023C0286021C027FD27C07A
:1044000030ED380F3A3078F426FF06C0FAE05F9EB0
:10441000300D1124532E13C08AE0389E300D112424
:10442000332E20620CC08E3221F426FD6BC1206435
:1044300006C08C3611F4206802C0883641F4F601BB
:1044400093FD859193FF81916F018111C1CF982FC9
:104450009F7D9554933028F40C5F1F4FFFE3F98341
:104460000DC0833631F0833771F0833509F05BC0BE
:1044700022C0F801808189830E5F1F4F442443943A
:10448000512C540115C03801F2E06F0E711CF80177
:10449000A080B18026FF03C0652D70E002C06FEFE1
:1044A0007FEFC5012C870E945A262C0183012C85A1
:1044B0002F77222E17C03801F2E06F0E711CF80121
:1044C000A080B18026FF03C0652D70E002C06FEFB1
:1044D0007FEFC5012C870E944F262C012C85206878
:1044E000222E830123FC1BC0832D90E04816590621
:1044F000B0F4B70180E290E00E94A3263A94F4CF92
:10450000F50127FC859127FE81915F01B70190E0BD
:104510000E94A32631103A94F1E04F1A5108411439
:10452000510471F7E5C0843611F0893639F5F80188
:1045300027FF07C060817181828193810C5F1F4FCB
:1045400008C060817181882777FD8095982F0E5F64
:104550001F4F2F76B22E97FF09C0909580957095CA
:1045600061957F4F8F4F9F4F2068B22E2AE030E039
:10457000A4010E94EE26A82EA81844C0853729F46D
:104580002F7EB22E2AE030E025C0F22FF97FBF2E19
:104590008F36C1F018F4883579F0B4C0803719F03F
:1045A000883721F0AFC02F2F2061B22EB4FE0DC08E
:1045B0008B2D8460B82E09C024FF0AC09F2F9660FF
:1045C000B92E06C028E030E005C020E130E002C08E
:1045D00020E132E0F801B7FE07C06081718182817D
:1045E00093810C5F1F4F06C06081718180E090E075
:1045F0000E5F1F4FA4010E94EE26A82EA818FB2DC7
:10460000FF77BF2EB6FE0BC02B2D2E7FA51450F4C6
:10461000B4FE0AC0B2FC08C02B2D2E7E05C07A2C39
:104620002B2D03C07A2C01C0752C24FF0DC0FE0178
:10463000EA0DF11D8081803311F4297E09C022FF2B
:1046400006C07394739404C0822F867809F0739423
:1046500023FD13C020FF06C05A2C731418F4530C0A
:104660005718732C731468F4B70180E290E02C871C
:104670000E94A32673942C85F5CF731410F4371879
:1046800001C0312C24FF12C0B70180E390E02C87D9
:104690000E94A3262C8522FF17C021FF03C088E5B6
:1046A00090E002C088E790E0B7010CC0822F8678C6
:1046B00059F021FD02C080E201C08BE227FD8DE2AE
:1046C000B70190E00E94A326A51438F4B70180E357
:1046D00090E00E94A3265A94F7CFAA94F401EA0D21
:1046E000F11D8081B70190E00E94A326A110F5CFB3
:1046F000332009F451CEB70180E290E00E94A32656
:104700003A94F6CFF7018681978102C08FEF9FEF31
:104710002C96E2E10C94682720FD09C0FC0123FDE2
:1047200005C022FF02C073836283518340830895D2
:1047300044FD10C046FD10C0DB01FC01AA0FBB1FE9
:10474000EE1FFF1F1094D1F76A0F7B1F8E1F9F1F54
:1047500031E003C033E001C034E0660F771F881FEB
:10476000991F3150D1F7620F711D811D911D089560
:104770000F931F93CF93DF938C01C8010E9465268E
:10478000EC0197FD08C00E944F21892BB1F7B801B9
:10479000CE010E94D526CE01DF91CF911F910F91BE
:1047A00008958F929F92AF92CF92DF92EF92FF92F5
:1047B0000F931F93CF93DF93EC01A62E4A01022F94
:1047C0000E946526AC0155274B32510521F04D3230
:1047D000510551F40068AA9411F480E067C0CE013D
:1047E0000E94652697FDF9CF102F1D7F302F307363
:1047F00001F58033F1F4FF24FA94FA0C09F442C075
:10480000CE010E94652697FD3DC0382F3F7D38358B
:1048100051F41264AA94AA94A9F1CE010E946526CB
:1048200097FF07C02FC006FF02C0126001C01261CF
:10483000AF2CC12CD12C760120ED280F283080F030
:1048400014FF04C0BE010E94D52619C02A3040F0D2
:1048500016FFF8CF2F7D3FEE320F363098F72750F6
:10486000412FC701B6010E9498236B017C011260A1
:10487000AA9459F0CE010E94652697FFDDCF11FD65
:1048800004C0ABCFC12CD12C760117FF08C0F09427
:10489000E094D094C094C11CD11CE11CF11C212FC8
:1048A000B701A601C4010E948C2381E0DF91CF9162
:1048B0001F910F91FF90EF90DF90CF90AF909F905E
:1048C0008F900895A1E2B0E0E8E6F4E20C9451275D
:1048D0005C017A018E010F5F1F4F680180E2D801F1
:1048E0001D928A95E9F7F501738040E050E0812C34
:1048F000B0E0912C81E090E0F90173FCA59173FE8A
:10490000A1918F017A2F9F01A11103C080E090E057
:104910007DC0AE3519F44115510559F1E92DF0E08E
:10492000E417F5073CF4AD3569F1AD3219F4BB235A
:1049300019F103C0B11101C08A2EE72FE695E69563
:10494000E69586010E0F111DF801A72FA7708C01A7
:1049500002C0000F111FAA95E2F7D801B081BA2B4F
:10496000B083781559F0781510F47F5FE6CF715059
:10497000E4CF9924939403C0B1E001C0B0E04F5F4D
:104980005F4FBACFBB2319F08E8180628E83911066
:1049900003C09924939415C0F601CE01819620811D
:1049A00020952193E817F907D1F7F3CFE114F1042B
:1049B00029F0D7018C93F70131967F01615001F105
:1049C000912CC50169A30E94652669A197FD16C0B7
:1049D000282F269526952695F601E20FF11D2081B8
:1049E00030E0AC014770552702C0359527954A95B0
:1049F000E2F720FDDBCFB5010E94D526911086CFCE
:104A0000E114F10411F0D7011C92C801A196EDE068
:104A10000C946D274F925F927F928F929F92AF92EC
:104A2000BF92CF92DF92EF92FF920F931F93CF939B
:104A3000DF931F92CDB7DEB78C012B017A01FC0109
:104A400017821682A12CF801D380F201D3FC859144
:104A5000D3FE8191382F2F01882309F4FCC090E008
:104A600039830E944F213981892B21F0C8010E948E
:104A7000B823E9CF353241F4F201D3FC3591D3FEAE
:104A800031912F01353269F4C80139830E946526BE
:104A9000398197FDDEC03817B1F2B8010E94D526E2
:104AA000DAC03A3241F4D3FC3591D3FE31912F0173
:104AB000BB24B39401C0B12C712C20ED230F2A30FC
:104AC00090F4FB2DF260BF2E672D70E080E090E047
:104AD00040E20E949823762EF201D3FC3591D3FE5A
:104AE00031912F01EACFB1FE03C0711003C0B3C0F2
:104AF00077247A94383619F03C3661F014C0F2010C
:104B0000D3FC3591D3FE31912F01383661F4FB2D62
:104B1000F860BF2E8B2D8460B82EF201D3FC359146
:104B2000D3FE31912F01332309F495C0632F70E038
:104B300086E791E039830E9444263981892B09F464
:104B40008AC0B0FC07C0F701C080D180C7010296BF
:104B50007C0102C0C12CD12C3E3651F4F8014681B3
:104B6000578160E070E02B2DC6010E948C236BCF33
:104B70003336A1F4B1FC02C077247394C8010E94BB
:104B8000652697FD66C0C114D10429F0F601808323
:104B9000C60101966C017A9489F757C03B3559F4E8
:104BA0009201A601672DC8010E9462242C01009782
:104BB00009F04BC045C0C80139830E94B823398130
:104BC00097FD47C03F3669F128F4343631F1393664
:104BD00079F12BC0333769F03537F9F026C0C114AD
:104BE000D10429F0F6018082C60101966C017A9405
:104BF00071F0C8010E9465264C0197FD08C00E9413
:104C00004F21892B61F3B801C4010E94D526C1143C
:104C1000D104D9F0F601108218C0FB2DF062BF2E2E
:104C200007C08B2D8061B82E03C09B2D9064B92ED8
:104C30002B2DA601672DC8010E94D123811105C02B
:104C4000F8018381807329F406C0B0FCFCCEA394E4
:104C5000FACEAA2019F08A2D90E002C08FEF9FEFC4
:104C60000F90DF91CF911F910F91FF90EF90DF9008
:104C7000CF90BF90AF909F908F907F905F904F901C
:104C80000895992788270895FC010590061621F0BC
:104C90000020D9F7C00108953197CF010895FC0194
:104CA0000590615070400110D8F7809590958E0F57
:104CB0009F1F0895FC016150704001900110D8F7CA
:104CC000809590958E0F9F1F0895CF93DF93EC01F1
:104CD0002B8120FF33C026FF0AC02F7B2B838E81C0
:104CE0009F8101969F838E838A8190E029C022FF55
:104CF0000FC0E881F9818081992787FD9095009701
:104D000019F420622B831AC03196F983E8830EC010
:104D1000EA85FB85099597FF09C02B81019611F45F
:104D200080E101C080E2822B8B8308C02E813F810D
:104D30002F5F3F4F3F832E83992702C08FEF9FEF56
:104D4000DF91CF9108950F931F93CF93DF93182F87
:104D5000092FEB018B8181FD03C08FEF9FEF20C0F6
:104D600082FF10C04E815F812C813D814217530725
:104D70007CF4E881F9819F012F5F3F4F39832883BD
:104D8000108306C0E885F985812F0995892B29F7BD
:104D90002E813F812F5F3F4F3F832E83812F902FA6
:104DA000DF91CF911F910F910895FB01238120FF87
:104DB00012C026FD10C08F3F3FEF930761F0828342
:104DC0002F7D206423832681378121503109378349
:104DD0002683992708958FEF9FEF0895FA01AA2758
:104DE000283051F1203181F1E8946F936E7F6E5F2E
:104DF0007F4F8F4F9F4FAF4FB1E03ED0B4E03CD0DC
:104E0000670F781F891F9A1FA11D680F791F8A1FBE
:104E1000911DA11D6A0F711D811D911DA11D20D025
:104E200009F468943F912AE0269F11243019305DDF
:104E30003193DEF6CF010895462F4770405D4193D0
:104E4000B3E00FD0C9F7F6CF462F4F70405D4A331D
:104E500018F0495D31FD4052419302D0A9F7EACFE5
:104E6000B4E0A6959795879577956795BA95C9F714
:104E700000976105710508959B01AC010A2E069407
:104E80005795479537952795BA95C9F7620F731FC0
:104E9000841F951FA01D08952F923F924F925F92FD
:104EA0006F927F928F929F92AF92BF92CF92DF923A
:104EB000EF92FF920F931F93CF93DF93CDB7DEB79F
:104EC000CA1BDB0B0FB6F894DEBF0FBECDBF099433
:104ED0002A88398848885F846E847D848C849B848A
:104EE000AA84B984C884DF80EE80FD800C811B8198
:104EF000AA81B981CE0FD11D0FB6F894DEBF0FBEC7
:104F0000CDBFED01089511E0C8E8D1E004C0FE0175
:104F10000E941D212296CA38D107C9F7F894FFCF05
:104F200007000500090006000A0001000040048097
:104F3000005265616368656420706F736974696F9E
:104F40006E00320033003400204C3100204C6F00E2
:104F50002052310020526F0020434400205444006E
:104F6000206F440053746172746564002D32302CDC
:104F7000203530002D32302C203830002D32302CAE
:104F80002031303000360037002D32302C203132C5
:104F90003000380039002D3230202C31353000718E
:104FA000002D39302C20383000770065002D393045
:104FB0002C20383500720074002D39302C20393007
:104FC00000790075002D39302C203935003930201A
:104FD0002C3935002D3930202C313030007000252F
:104FE000692C25692C25690000000000E711E718ED
:104FF0002511EA100B113D11000000005417E718AD
:1050000000172917101749176E616E00696E660048
:065010006F7666002E0021
:00000001FF
